{
  "contractName": "AppelOffres",
  "abi": [
    {
      "inputs": [],
      "name": "offreCount",
      "outputs": [
        {
          "internalType": "uint256",
          "name": "",
          "type": "uint256"
        }
      ],
      "stateMutability": "view",
      "type": "function",
      "constant": true
    },
    {
      "inputs": [],
      "name": "getOffreCount",
      "outputs": [
        {
          "internalType": "uint256",
          "name": "",
          "type": "uint256"
        }
      ],
      "stateMutability": "view",
      "type": "function",
      "constant": true
    },
    {
      "inputs": [
        {
          "internalType": "string",
          "name": "_titre",
          "type": "string"
        },
        {
          "internalType": "string",
          "name": "_description",
          "type": "string"
        },
        {
          "internalType": "uint256",
          "name": "_datePublication",
          "type": "uint256"
        },
        {
          "internalType": "uint256",
          "name": "_dateCloture",
          "type": "uint256"
        }
      ],
      "name": "creerOffre",
      "outputs": [],
      "stateMutability": "nonpayable",
      "type": "function"
    },
    {
      "inputs": [],
      "name": "getAllOffres",
      "outputs": [
        {
          "components": [
            {
              "internalType": "uint256",
              "name": "numero",
              "type": "uint256"
            },
            {
              "internalType": "string",
              "name": "titre",
              "type": "string"
            },
            {
              "internalType": "string",
              "name": "description",
              "type": "string"
            },
            {
              "internalType": "uint256",
              "name": "datePublication",
              "type": "uint256"
            },
            {
              "internalType": "uint256",
              "name": "dateCloture",
              "type": "uint256"
            }
          ],
          "internalType": "struct AppelOffres.Offre[]",
          "name": "",
          "type": "tuple[]"
        }
      ],
      "stateMutability": "view",
      "type": "function",
      "constant": true
    },
    {
      "inputs": [
        {
          "internalType": "uint256",
          "name": "_index",
          "type": "uint256"
        }
      ],
      "name": "getOffre",
      "outputs": [
        {
          "components": [
            {
              "internalType": "uint256",
              "name": "numero",
              "type": "uint256"
            },
            {
              "internalType": "string",
              "name": "titre",
              "type": "string"
            },
            {
              "internalType": "string",
              "name": "description",
              "type": "string"
            },
            {
              "internalType": "uint256",
              "name": "datePublication",
              "type": "uint256"
            },
            {
              "internalType": "uint256",
              "name": "dateCloture",
              "type": "uint256"
            }
          ],
          "internalType": "struct AppelOffres.Offre",
          "name": "",
          "type": "tuple"
        }
      ],
      "stateMutability": "view",
      "type": "function",
      "constant": true
    },
    {
      "inputs": [
        {
          "internalType": "uint256",
          "name": "_indexOffre",
          "type": "uint256"
        },
        {
          "internalType": "string",
          "name": "_soumission",
          "type": "string"
        }
      ],
      "name": "soumettreOffre",
      "outputs": [],
      "stateMutability": "nonpayable",
      "type": "function"
    },
    {
      "inputs": [],
      "name": "evaluerOffres",
      "outputs": [],
      "stateMutability": "nonpayable",
      "type": "function"
    },
    {
      "inputs": [],
      "name": "getOffreGagnante",
      "outputs": [
        {
          "components": [
            {
              "internalType": "uint256",
              "name": "numero",
              "type": "uint256"
            },
            {
              "internalType": "string",
              "name": "titre",
              "type": "string"
            },
            {
              "internalType": "string",
              "name": "description",
              "type": "string"
            },
            {
              "internalType": "uint256",
              "name": "datePublication",
              "type": "uint256"
            },
            {
              "internalType": "uint256",
              "name": "dateCloture",
              "type": "uint256"
            }
          ],
          "internalType": "struct AppelOffres.Offre",
          "name": "",
          "type": "tuple"
        }
      ],
      "stateMutability": "pure",
      "type": "function",
      "constant": true
    },
    {
      "inputs": [
        {
          "internalType": "uint256",
          "name": "_numero",
          "type": "uint256"
        }
      ],
      "name": "getDescriptionOffre",
      "outputs": [
        {
          "internalType": "string",
          "name": "",
          "type": "string"
        }
      ],
      "stateMutability": "view",
      "type": "function",
      "constant": true
    }
  ],
  "bytecode": "0x608060405234801561001057600080fd5b50611040806100206000396000f3fe608060405234801561001057600080fd5b50600436106100935760003560e01c80634433920b116100665780634433920b146100fa57806380840dfc14610118578063b263c40214610148578063c6a09cb914610164578063d020ad361461019457610093565b80631115dc2114610098578063129db468146100a25780633051d075146100c05780633796ff13146100de575b600080fd5b6100a06101b2565b005b6100aa6101b4565b6040516100b79190610a1a565b60405180910390f35b6100c86103b5565b6040516100d59190610a4b565b60405180910390f35b6100f860048036038101906100f39190610bdb565b6103bf565b005b6101026103c3565b60405161010f9190610a4b565b60405180910390f35b610132600480360381019061012d9190610c37565b6103c9565b60405161013f9190610ce1565b60405180910390f35b610162600480360381019061015d9190610d03565b610537565b005b61017e60048036038101906101799190610c37565b6105fe565b60405161018b9190610dec565b60405180910390f35b61019c610702565b6040516101a99190610ce1565b60405180910390f35b565b6060600060015467ffffffffffffffff8111156101d4576101d3610ab0565b5b60405190808252806020026020018201604052801561020d57816020015b6101fa610757565b8152602001906001900390816101f25790505b50905060005b6001548110156103ad576000808281526020019081526020016000206040518060a00160405290816000820154815260200160018201805461025490610e3d565b80601f016020809104026020016040519081016040528092919081815260200182805461028090610e3d565b80156102cd5780601f106102a2576101008083540402835291602001916102cd565b820191906000526020600020905b8154815290600101906020018083116102b057829003601f168201915b505050505081526020016002820180546102e690610e3d565b80601f016020809104026020016040519081016040528092919081815260200182805461031290610e3d565b801561035f5780601f106103345761010080835404028352916020019161035f565b820191906000526020600020905b81548152906001019060200180831161034257829003601f168201915b505050505081526020016003820154815260200160048201548152505082828151811061038f5761038e610e6e565b5b602002602001018190525080806103a590610ecc565b915050610213565b508091505090565b6000600154905090565b5050565b60015481565b6103d1610757565b6000808381526020019081526020016000206040518060a00160405290816000820154815260200160018201805461040890610e3d565b80601f016020809104026020016040519081016040528092919081815260200182805461043490610e3d565b80156104815780601f1061045657610100808354040283529160200191610481565b820191906000526020600020905b81548152906001019060200180831161046457829003601f168201915b5050505050815260200160028201805461049a90610e3d565b80601f01602080910402602001604051908101604052809291908181526020018280546104c690610e3d565b80156105135780601f106104e857610100808354040283529160200191610513565b820191906000526020600020905b8154815290600101906020018083116104f657829003601f168201915b50505050508152602001600382015481526020016004820154815250509050919050565b6000600180546105479190610f14565b90506040518060a001604052808281526020018681526020018581526020018481526020018381525060008060015481526020019081526020016000206000820151816000015560208201518160010190805190602001906105aa929190610786565b5060408201518160020190805190602001906105c7929190610786565b506060820151816003015560808201518160040155905050600160008154809291906105f290610ecc565b91905055505050505050565b606060015482111580156106125750600082115b610651576040517f08c379a000000000000000000000000000000000000000000000000000000000815260040161064890610fb6565b60405180910390fd5b6000806001846106619190610fd6565b8152602001908152602001600020600201805461067d90610e3d565b80601f01602080910402602001604051908101604052809291908181526020018280546106a990610e3d565b80156106f65780601f106106cb576101008083540402835291602001916106f6565b820191906000526020600020905b8154815290600101906020018083116106d957829003601f168201915b50505050509050919050565b61070a610757565b6040518060a0016040528060008152602001604051806020016040528060008152508152602001604051806020016040528060008152508152602001600081526020016000815250905090565b6040518060a0016040528060008152602001606081526020016060815260200160008152602001600081525090565b82805461079290610e3d565b90600052602060002090601f0160209004810192826107b457600085556107fb565b82601f106107cd57805160ff19168380011785556107fb565b828001600101855582156107fb579182015b828111156107fa5782518255916020019190600101906107df565b5b509050610808919061080c565b5090565b5b8082111561082557600081600090555060010161080d565b5090565b600081519050919050565b600082825260208201905092915050565b6000819050602082019050919050565b6000819050919050565b61086881610855565b82525050565b600081519050919050565b600082825260208201905092915050565b60005b838110156108a857808201518184015260208101905061088d565b838111156108b7576000848401525b50505050565b6000601f19601f8301169050919050565b60006108d98261086e565b6108e38185610879565b93506108f381856020860161088a565b6108fc816108bd565b840191505092915050565b600060a08301600083015161091f600086018261085f565b506020830151848203602086015261093782826108ce565b9150506040830151848203604086015261095182826108ce565b9150506060830151610966606086018261085f565b506080830151610979608086018261085f565b508091505092915050565b60006109908383610907565b905092915050565b6000602082019050919050565b60006109b082610829565b6109ba8185610834565b9350836020820285016109cc85610845565b8060005b85811015610a0857848403895281516109e98582610984565b94506109f483610998565b925060208a019950506001810190506109d0565b50829750879550505050505092915050565b60006020820190508181036000830152610a3481846109a5565b905092915050565b610a4581610855565b82525050565b6000602082019050610a606000830184610a3c565b92915050565b6000604051905090565b600080fd5b600080fd5b610a8381610855565b8114610a8e57600080fd5b50565b600081359050610aa081610a7a565b92915050565b600080fd5b600080fd5b7f4e487b7100000000000000000000000000000000000000000000000000000000600052604160045260246000fd5b610ae8826108bd565b810181811067ffffffffffffffff82111715610b0757610b06610ab0565b5b80604052505050565b6000610b1a610a66565b9050610b268282610adf565b919050565b600067ffffffffffffffff821115610b4657610b45610ab0565b5b610b4f826108bd565b9050602081019050919050565b82818337600083830152505050565b6000610b7e610b7984610b2b565b610b10565b905082815260208101848484011115610b9a57610b99610aab565b5b610ba5848285610b5c565b509392505050565b600082601f830112610bc257610bc1610aa6565b5b8135610bd2848260208601610b6b565b91505092915050565b60008060408385031215610bf257610bf1610a70565b5b6000610c0085828601610a91565b925050602083013567ffffffffffffffff811115610c2157610c20610a75565b5b610c2d85828601610bad565b9150509250929050565b600060208284031215610c4d57610c4c610a70565b5b6000610c5b84828501610a91565b91505092915050565b600060a083016000830151610c7c600086018261085f565b5060208301518482036020860152610c9482826108ce565b91505060408301518482036040860152610cae82826108ce565b9150506060830151610cc3606086018261085f565b506080830151610cd6608086018261085f565b508091505092915050565b60006020820190508181036000830152610cfb8184610c64565b905092915050565b60008060008060808587031215610d1d57610d1c610a70565b5b600085013567ffffffffffffffff811115610d3b57610d3a610a75565b5b610d4787828801610bad565b945050602085013567ffffffffffffffff811115610d6857610d67610a75565b5b610d7487828801610bad565b9350506040610d8587828801610a91565b9250506060610d9687828801610a91565b91505092959194509250565b600082825260208201905092915050565b6000610dbe8261086e565b610dc88185610da2565b9350610dd881856020860161088a565b610de1816108bd565b840191505092915050565b60006020820190508181036000830152610e068184610db3565b905092915050565b7f4e487b7100000000000000000000000000000000000000000000000000000000600052602260045260246000fd5b60006002820490506001821680610e5557607f821691505b602082108103610e6857610e67610e0e565b5b50919050565b7f4e487b7100000000000000000000000000000000000000000000000000000000600052603260045260246000fd5b7f4e487b7100000000000000000000000000000000000000000000000000000000600052601160045260246000fd5b6000610ed782610855565b91507fffffffffffffffffffffffffffffffffffffffffffffffffffffffffffffffff8203610f0957610f08610e9d565b5b600182019050919050565b6000610f1f82610855565b9150610f2a83610855565b9250827fffffffffffffffffffffffffffffffffffffffffffffffffffffffffffffffff03821115610f5f57610f5e610e9d565b5b828201905092915050565b7f6f66667265204e6f6e2074726f75766500000000000000000000000000000000600082015250565b6000610fa0601083610da2565b9150610fab82610f6a565b602082019050919050565b60006020820190508181036000830152610fcf81610f93565b9050919050565b6000610fe182610855565b9150610fec83610855565b925082821015610fff57610ffe610e9d565b5b82820390509291505056fea2646970667358221220ff47f402c369f9bdbdf1b2fc6375bf97c8ec850885d8740e78cc3091caf80b0d64736f6c634300080d0033",
  "immutableReferences": {},
  "source": "// SPDX-License-Identifier: MIT\npragma solidity ^0.8.13;\n\ncontract AppelOffres {\n\n    // Structure pour stocker les dtails de l'appel d'offres\n    struct Offre {\n        uint numero;\n        string titre;\n        string description;\n        uint datePublication;\n        uint dateCloture;\n    }\n\n    // Tableau des offres\n    mapping(uint =>Offre) offres;\n    uint public offreCount;\n\n    function getOffreCount() public view returns(uint) {\n        return offreCount;\n    }\n\n    // Fonction pour crer un nouvel appel d'offres\n    function creerOffre( string memory _titre,string memory _description,uint _datePublication,uint _dateCloture\n    ) public{\n        uint num = offreCount +1;\n\n        offres[offreCount] = Offre(num, _titre, _description,_datePublication,_dateCloture);\n        offreCount++;\n    \n    }\n\n    //recuperations de tous les offres\n    function getAllOffres() public view returns(Offre[] memory){\n        Offre[] memory result = new Offre[](offreCount);\n        for(uint i=0;i<offreCount;i++){\n            result[i] = offres[i];\n        }\n        return result;\n    }\n\n    // Fonction pour obtenir les dtails d'une offre\n    function getOffre(uint _index) public view returns (Offre memory) {\n        return offres[_index];\n    }\n\n    // Fonction pour soumettre une offre (implmentation en attente)\n    function soumettreOffre(uint _indexOffre, string memory _soumission) public {\n        // TODO: Implmenter la logique de soumission d'offre\n    }\n\n    // Fonction pour valuer les offres (implmentation en attente)\n    function evaluerOffres() public {\n        // TODO: Implmenter la logique d'valuation des offres\n    }\n\n    // Fonction pour obtenir l'offre gagnante (implmentation en attente)\n    function getOffreGagnante() public pure returns (Offre memory) {\n        // TODO: Implmenter la logique pour dterminer l'offre gagnante\n        return Offre(0,\"\", \"\", 0, 0);\n    }\n\n    function getDescriptionOffre(uint _numero) public view returns(string memory){\n        require(_numero <= offreCount && _numero > 0 ,\"offre Non trouve\");\n\n        return offres[_numero-1].description;\n    }\n}\n",
  "sourcePath": "/home/yaki/projet/PROJET-BLOCKCHAIN/smartcontract/contracts/AppelOffres.sol",
  "compiler": {
    "name": "solc",
    "version": "0.8.13+commit.abaa5c0e.Emscripten.clang"
  },
  "schemaVersion": "3.4.16",
  "updatedAt": "2024-05-02T11:55:21.757Z",
  "networkType": "ethereum",
  "devdoc": {
    "kind": "dev",
    "methods": {},
    "version": 1
  },
  "userdoc": {
    "kind": "user",
    "methods": {},
    "version": 1
  }
}