{
  "contractName": "AppelOffres",
  "abi": [
    {
      "inputs": [
        {
          "internalType": "uint256",
          "name": "",
          "type": "uint256"
        },
        {
          "internalType": "uint256",
          "name": "",
          "type": "uint256"
        }
      ],
      "name": "criteresEvaluation",
      "outputs": [
        {
          "internalType": "string",
          "name": "",
          "type": "string"
        }
      ],
      "stateMutability": "view",
      "type": "function"
    },
    {
      "inputs": [
        {
          "internalType": "uint256",
          "name": "",
          "type": "uint256"
        }
      ],
      "name": "offres",
      "outputs": [
        {
          "internalType": "string",
          "name": "titre",
          "type": "string"
        },
        {
          "internalType": "string",
          "name": "description",
          "type": "string"
        },
        {
          "internalType": "uint256",
          "name": "datePublication",
          "type": "uint256"
        },
        {
          "internalType": "uint256",
          "name": "dateCloture",
          "type": "uint256"
        }
      ],
      "stateMutability": "view",
      "type": "function"
    },
    {
      "inputs": [
        {
          "internalType": "string",
          "name": "_titre",
          "type": "string"
        },
        {
          "internalType": "string",
          "name": "_description",
          "type": "string"
        },
        {
          "internalType": "uint256",
          "name": "_datePublication",
          "type": "uint256"
        },
        {
          "internalType": "uint256",
          "name": "_dateCloture",
          "type": "uint256"
        },
        {
          "internalType": "string[]",
          "name": "_criteresEvaluation",
          "type": "string[]"
        }
      ],
      "name": "creerOffre",
      "outputs": [],
      "stateMutability": "nonpayable",
      "type": "function"
    },
    {
      "inputs": [
        {
          "internalType": "uint256",
          "name": "_index",
          "type": "uint256"
        }
      ],
      "name": "getOffre",
      "outputs": [
        {
          "components": [
            {
              "internalType": "string",
              "name": "titre",
              "type": "string"
            },
            {
              "internalType": "string",
              "name": "description",
              "type": "string"
            },
            {
              "internalType": "uint256",
              "name": "datePublication",
              "type": "uint256"
            },
            {
              "internalType": "uint256",
              "name": "dateCloture",
              "type": "uint256"
            }
          ],
          "internalType": "struct AppelOffres.Offre",
          "name": "",
          "type": "tuple"
        }
      ],
      "stateMutability": "view",
      "type": "function"
    },
    {
      "inputs": [
        {
          "internalType": "uint256",
          "name": "_index",
          "type": "uint256"
        }
      ],
      "name": "getCriteresEvaluation",
      "outputs": [
        {
          "internalType": "string[]",
          "name": "",
          "type": "string[]"
        }
      ],
      "stateMutability": "view",
      "type": "function"
    },
    {
      "inputs": [
        {
          "internalType": "uint256",
          "name": "_indexOffre",
          "type": "uint256"
        },
        {
          "internalType": "string",
          "name": "_soumission",
          "type": "string"
        }
      ],
      "name": "soumettreOffre",
      "outputs": [],
      "stateMutability": "nonpayable",
      "type": "function"
    },
    {
      "inputs": [],
      "name": "evaluerOffres",
      "outputs": [],
      "stateMutability": "nonpayable",
      "type": "function"
    },
    {
      "inputs": [],
      "name": "getOffreGagnante",
      "outputs": [
        {
          "components": [
            {
              "internalType": "string",
              "name": "titre",
              "type": "string"
            },
            {
              "internalType": "string",
              "name": "description",
              "type": "string"
            },
            {
              "internalType": "uint256",
              "name": "datePublication",
              "type": "uint256"
            },
            {
              "internalType": "uint256",
              "name": "dateCloture",
              "type": "uint256"
            }
          ],
          "internalType": "struct AppelOffres.Offre",
          "name": "",
          "type": "tuple"
        }
      ],
      "stateMutability": "pure",
      "type": "function"
    }
  ],
  "bytecode": "0x608060405234801561001057600080fd5b506110d2806100206000396000f3fe608060405234801561001057600080fd5b50600436106100885760003560e01c806380840dfc1161005b57806380840dfc14610116578063bf177c5314610146578063cf05c74314610162578063d020ad361461019257610088565b80630cb8a48f1461008d5780631115dc21146100c05780633796ff13146100ca5780636cff5051146100e6575b600080fd5b6100a760048036038101906100a291906108c9565b6101b0565b6040516100b7949392919061099e565b60405180910390f35b6100c8610300565b005b6100e460048036038101906100df9190610b26565b610302565b005b61010060048036038101906100fb9190610b82565b610306565b60405161010d9190610bc2565b60405180910390f35b610130600480360381019061012b91906108c9565b6103bf565b60405161013d9190610ca7565b60405180910390f35b610160600480360381019061015b9190610daf565b610533565b005b61017c600480360381019061017791906108c9565b61067a565b6040516101899190610f40565b60405180910390f35b61019a610766565b6040516101a79190610ca7565b60405180910390f35b600081815481106101c057600080fd5b90600052602060002090600402016000915090508060000180546101e390610f91565b80601f016020809104026020016040519081016040528092919081815260200182805461020f90610f91565b801561025c5780601f106102315761010080835404028352916020019161025c565b820191906000526020600020905b81548152906001019060200180831161023f57829003601f168201915b50505050509080600101805461027190610f91565b80601f016020809104026020016040519081016040528092919081815260200182805461029d90610f91565b80156102ea5780601f106102bf576101008083540402835291602001916102ea565b820191906000526020600020905b8154815290600101906020018083116102cd57829003601f168201915b5050505050908060020154908060030154905084565b565b5050565b6001602052816000526040600020818154811061032257600080fd5b9060005260206000200160009150915050805461033e90610f91565b80601f016020809104026020016040519081016040528092919081815260200182805461036a90610f91565b80156103b75780601f1061038c576101008083540402835291602001916103b7565b820191906000526020600020905b81548152906001019060200180831161039a57829003601f168201915b505050505081565b6103c76107b4565b600082815481106103db576103da610fc2565b5b906000526020600020906004020160405180608001604052908160008201805461040490610f91565b80601f016020809104026020016040519081016040528092919081815260200182805461043090610f91565b801561047d5780601f106104525761010080835404028352916020019161047d565b820191906000526020600020905b81548152906001019060200180831161046057829003601f168201915b5050505050815260200160018201805461049690610f91565b80601f01602080910402602001604051908101604052809291908181526020018280546104c290610f91565b801561050f5780601f106104e45761010080835404028352916020019161050f565b820191906000526020600020905b8154815290600101906020018083116104f257829003601f168201915b50505050508152602001600282015481526020016003820154815250509050919050565b60006040518060800160405280878152602001868152602001858152602001848152509050600081908060018154018082558091505060019003906000526020600020906004020160009091909190915060008201518160000190805190602001906105a09291906107dc565b5060208201518160010190805190602001906105bd9291906107dc565b5060408201518160020155606082015181600301555050600060016000805490506105e89190611020565b905060005b8351811015610670576001600083815260200190815260200160002084828151811061061c5761061b610fc2565b5b602002602001015190806001815401808255809150506001900390600052602060002001600090919091909150908051906020019061065c9291906107dc565b50808061066890611054565b9150506105ed565b5050505050505050565b606060016000838152602001908152602001600020805480602002602001604051908101604052809291908181526020016000905b8282101561075b5783829060005260206000200180546106ce90610f91565b80601f01602080910402602001604051908101604052809291908181526020018280546106fa90610f91565b80156107475780601f1061071c57610100808354040283529160200191610747565b820191906000526020600020905b81548152906001019060200180831161072a57829003601f168201915b5050505050815260200190600101906106af565b505050509050919050565b61076e6107b4565b6040518060800160405280604051806020016040528060008152508152602001604051806020016040528060008152508152602001600081526020016000815250905090565b6040518060800160405280606081526020016060815260200160008152602001600081525090565b8280546107e890610f91565b90600052602060002090601f01602090048101928261080a5760008555610851565b82601f1061082357805160ff1916838001178555610851565b82800160010185558215610851579182015b82811115610850578251825591602001919060010190610835565b5b50905061085e9190610862565b5090565b5b8082111561087b576000816000905550600101610863565b5090565b6000604051905090565b600080fd5b600080fd5b6000819050919050565b6108a681610893565b81146108b157600080fd5b50565b6000813590506108c38161089d565b92915050565b6000602082840312156108df576108de610889565b5b60006108ed848285016108b4565b91505092915050565b600081519050919050565b600082825260208201905092915050565b60005b83811015610930578082015181840152602081019050610915565b8381111561093f576000848401525b50505050565b6000601f19601f8301169050919050565b6000610961826108f6565b61096b8185610901565b935061097b818560208601610912565b61098481610945565b840191505092915050565b61099881610893565b82525050565b600060808201905081810360008301526109b88187610956565b905081810360208301526109cc8186610956565b90506109db604083018561098f565b6109e8606083018461098f565b95945050505050565b600080fd5b600080fd5b7f4e487b7100000000000000000000000000000000000000000000000000000000600052604160045260246000fd5b610a3382610945565b810181811067ffffffffffffffff82111715610a5257610a516109fb565b5b80604052505050565b6000610a6561087f565b9050610a718282610a2a565b919050565b600067ffffffffffffffff821115610a9157610a906109fb565b5b610a9a82610945565b9050602081019050919050565b82818337600083830152505050565b6000610ac9610ac484610a76565b610a5b565b905082815260208101848484011115610ae557610ae46109f6565b5b610af0848285610aa7565b509392505050565b600082601f830112610b0d57610b0c6109f1565b5b8135610b1d848260208601610ab6565b91505092915050565b60008060408385031215610b3d57610b3c610889565b5b6000610b4b858286016108b4565b925050602083013567ffffffffffffffff811115610b6c57610b6b61088e565b5b610b7885828601610af8565b9150509250929050565b60008060408385031215610b9957610b98610889565b5b6000610ba7858286016108b4565b9250506020610bb8858286016108b4565b9150509250929050565b60006020820190508181036000830152610bdc8184610956565b905092915050565b600082825260208201905092915050565b6000610c00826108f6565b610c0a8185610be4565b9350610c1a818560208601610912565b610c2381610945565b840191505092915050565b610c3781610893565b82525050565b60006080830160008301518482036000860152610c5a8282610bf5565b91505060208301518482036020860152610c748282610bf5565b9150506040830151610c896040860182610c2e565b506060830151610c9c6060860182610c2e565b508091505092915050565b60006020820190508181036000830152610cc18184610c3d565b905092915050565b600067ffffffffffffffff821115610ce457610ce36109fb565b5b602082029050602081019050919050565b600080fd5b6000610d0d610d0884610cc9565b610a5b565b90508083825260208201905060208402830185811115610d3057610d2f610cf5565b5b835b81811015610d7757803567ffffffffffffffff811115610d5557610d546109f1565b5b808601610d628982610af8565b85526020850194505050602081019050610d32565b5050509392505050565b600082601f830112610d9657610d956109f1565b5b8135610da6848260208601610cfa565b91505092915050565b600080600080600060a08688031215610dcb57610dca610889565b5b600086013567ffffffffffffffff811115610de957610de861088e565b5b610df588828901610af8565b955050602086013567ffffffffffffffff811115610e1657610e1561088e565b5b610e2288828901610af8565b9450506040610e33888289016108b4565b9350506060610e44888289016108b4565b925050608086013567ffffffffffffffff811115610e6557610e6461088e565b5b610e7188828901610d81565b9150509295509295909350565b600081519050919050565b600082825260208201905092915050565b6000819050602082019050919050565b6000610eb68383610bf5565b905092915050565b6000602082019050919050565b6000610ed682610e7e565b610ee08185610e89565b935083602082028501610ef285610e9a565b8060005b85811015610f2e5784840389528151610f0f8582610eaa565b9450610f1a83610ebe565b925060208a01995050600181019050610ef6565b50829750879550505050505092915050565b60006020820190508181036000830152610f5a8184610ecb565b905092915050565b7f4e487b7100000000000000000000000000000000000000000000000000000000600052602260045260246000fd5b60006002820490506001821680610fa957607f821691505b602082108103610fbc57610fbb610f62565b5b50919050565b7f4e487b7100000000000000000000000000000000000000000000000000000000600052603260045260246000fd5b7f4e487b7100000000000000000000000000000000000000000000000000000000600052601160045260246000fd5b600061102b82610893565b915061103683610893565b92508282101561104957611048610ff1565b5b828203905092915050565b600061105f82610893565b91507fffffffffffffffffffffffffffffffffffffffffffffffffffffffffffffffff820361109157611090610ff1565b5b60018201905091905056fea26469706673582212207b7e90ccc6c4a92fd80cee4222c6afd724d56f4698b567029bbddfb5f0e217ca64736f6c634300080d0033",
  "immutableReferences": {},
  "source": "// SPDX-License-Identifier: MIT\npragma solidity ^0.8.13;\n\ncontract AppelOffres {\n\n    // Structure pour stocker les dtails de l'appel d'offres\n    struct Offre {\n        string titre;\n        string description;\n        uint datePublication;\n        uint dateCloture;\n    }\n\n    // Tableau des offres\n    Offre[] public offres;\n\n    // Tableau des critres d'valuation pour chaque offre\n    mapping(uint => string[]) public criteresEvaluation;\n\n    // Fonction pour crer un nouvel appel d'offres\n    function creerOffre(\n        string memory _titre,\n        string memory _description,\n        uint _datePublication,\n        uint _dateCloture,\n        string[] memory _criteresEvaluation\n    ) public {\n        Offre memory nouvelleOffre = Offre({\n            titre: _titre,\n            description: _description,\n            datePublication: _datePublication,\n            dateCloture: _dateCloture\n        });\n\n        offres.push(nouvelleOffre);\n\n        // Stocker les critres d'valuation pour cette offre\n        uint indexOffre = offres.length - 1;\n        for (uint i = 0; i < _criteresEvaluation.length; i++) {\n            criteresEvaluation[indexOffre].push(_criteresEvaluation[i]);\n        }\n    }\n\n    // Fonction pour obtenir les dtails d'une offre\n    function getOffre(uint _index) public view returns (Offre memory) {\n        return offres[_index];\n    }\n\n    // Fonction pour obtenir les critres d'valuation d'une offre\n    function getCriteresEvaluation(uint _index) public view returns (string[] memory) {\n        return criteresEvaluation[_index];\n    }\n\n    // Fonction pour soumettre une offre (implmentation en attente)\n    function soumettreOffre(uint _indexOffre, string memory _soumission) public {\n        // TODO: Implmenter la logique de soumission d'offre\n    }\n\n    // Fonction pour valuer les offres (implmentation en attente)\n    function evaluerOffres() public {\n        // TODO: Implmenter la logique d'valuation des offres\n    }\n\n    // Fonction pour obtenir l'offre gagnante (implmentation en attente)\n    function getOffreGagnante() public pure returns (Offre memory) {\n        // TODO: Implmenter la logique pour dterminer l'offre gagnante\n        return Offre(\"\", \"\", 0, 0);\n    }\n}\n",
  "sourcePath": "/home/yaki/projet/PROJET-BLOCKCHAIN/smartcontract/contracts/AppelOffres.sol",
  "compiler": {
    "name": "solc",
    "version": "0.8.13+commit.abaa5c0e.Emscripten.clang"
  },
  "schemaVersion": "3.4.16",
  "updatedAt": "2024-04-28T08:45:42.723Z",
  "networkType": "ethereum",
  "devdoc": {
    "kind": "dev",
    "methods": {},
    "version": 1
  },
  "userdoc": {
    "kind": "user",
    "methods": {},
    "version": 1
  }
}