{
  "contractName": "ContratSoumissions",
  "abi": [
    {
      "inputs": [],
      "name": "offreCount",
      "outputs": [
        {
          "internalType": "uint256",
          "name": "",
          "type": "uint256"
        }
      ],
      "stateMutability": "view",
      "type": "function",
      "constant": true
    },
    {
      "inputs": [
        {
          "internalType": "uint256",
          "name": "",
          "type": "uint256"
        }
      ],
      "name": "soumissions",
      "outputs": [
        {
          "internalType": "uint256",
          "name": "numeroSoumission",
          "type": "uint256"
        },
        {
          "internalType": "address",
          "name": "soumissionaire",
          "type": "address"
        },
        {
          "internalType": "uint256",
          "name": "numeroContrat",
          "type": "uint256"
        },
        {
          "internalType": "string",
          "name": "nom",
          "type": "string"
        },
        {
          "internalType": "uint256",
          "name": "coutTotal",
          "type": "uint256"
        },
        {
          "internalType": "string",
          "name": "delaiRealisation",
          "type": "string"
        },
        {
          "internalType": "string",
          "name": "solution",
          "type": "string"
        },
        {
          "internalType": "uint256",
          "name": "garantie",
          "type": "uint256"
        },
        {
          "internalType": "string",
          "name": "references",
          "type": "string"
        }
      ],
      "stateMutability": "view",
      "type": "function",
      "constant": true
    },
    {
      "inputs": [
        {
          "internalType": "address",
          "name": "_soumissionaire",
          "type": "address"
        },
        {
          "internalType": "uint256",
          "name": "_numeroContrat",
          "type": "uint256"
        },
        {
          "internalType": "string",
          "name": "_nom",
          "type": "string"
        },
        {
          "internalType": "uint256",
          "name": "_coutTotal",
          "type": "uint256"
        },
        {
          "internalType": "string",
          "name": "_delaiRealisation",
          "type": "string"
        },
        {
          "internalType": "string",
          "name": "_solution",
          "type": "string"
        },
        {
          "internalType": "uint256",
          "name": "_garantie",
          "type": "uint256"
        },
        {
          "internalType": "string",
          "name": "_references",
          "type": "string"
        }
      ],
      "name": "ajouterSoumission",
      "outputs": [],
      "stateMutability": "nonpayable",
      "type": "function"
    },
    {
      "inputs": [],
      "name": "nombreSoumissions",
      "outputs": [
        {
          "internalType": "uint256",
          "name": "",
          "type": "uint256"
        }
      ],
      "stateMutability": "view",
      "type": "function",
      "constant": true
    },
    {
      "inputs": [
        {
          "internalType": "uint256",
          "name": "index",
          "type": "uint256"
        }
      ],
      "name": "obtenirSoumissionParIndex",
      "outputs": [
        {
          "internalType": "uint256",
          "name": "numeroSoumission",
          "type": "uint256"
        },
        {
          "internalType": "address",
          "name": "soumissionaire",
          "type": "address"
        },
        {
          "internalType": "uint256",
          "name": "numeroContrat",
          "type": "uint256"
        },
        {
          "internalType": "string",
          "name": "nom",
          "type": "string"
        },
        {
          "internalType": "uint256",
          "name": "coutTotal",
          "type": "uint256"
        },
        {
          "internalType": "string",
          "name": "delaiRealisation",
          "type": "string"
        },
        {
          "internalType": "string",
          "name": "solution",
          "type": "string"
        },
        {
          "internalType": "uint256",
          "name": "garantie",
          "type": "uint256"
        },
        {
          "internalType": "string",
          "name": "references",
          "type": "string"
        }
      ],
      "stateMutability": "view",
      "type": "function",
      "constant": true
    },
    {
      "inputs": [],
      "name": "listeToutesSoumissions",
      "outputs": [
        {
          "components": [
            {
              "internalType": "uint256",
              "name": "numeroSoumission",
              "type": "uint256"
            },
            {
              "internalType": "address",
              "name": "soumissionaire",
              "type": "address"
            },
            {
              "internalType": "uint256",
              "name": "numeroContrat",
              "type": "uint256"
            },
            {
              "internalType": "string",
              "name": "nom",
              "type": "string"
            },
            {
              "internalType": "uint256",
              "name": "coutTotal",
              "type": "uint256"
            },
            {
              "internalType": "string",
              "name": "delaiRealisation",
              "type": "string"
            },
            {
              "internalType": "string",
              "name": "solution",
              "type": "string"
            },
            {
              "internalType": "uint256",
              "name": "garantie",
              "type": "uint256"
            },
            {
              "internalType": "string",
              "name": "references",
              "type": "string"
            }
          ],
          "internalType": "struct ContratSoumissions.Soumission[]",
          "name": "",
          "type": "tuple[]"
        }
      ],
      "stateMutability": "view",
      "type": "function",
      "constant": true
    }
  ],
  "bytecode": "0x608060405234801561001057600080fd5b50611592806100206000396000f3fe608060405234801561001057600080fd5b50600436106100625760003560e01c80633dafb7a0146100675780634433920b1461009f5780634a0cdfc8146100bd5780635fe25f28146100db5780636eb57354146100f9578063dff9447214610115575b600080fd5b610081600480360381019061007c9190610d3d565b61014d565b60405161009699989796959493929190610e53565b60405180910390f35b6100a76104e9565b6040516100b49190610efc565b60405180910390f35b6100c56104ef565b6040516100d2919061111b565b60405180910390f35b6100e3610815565b6040516100f09190610efc565b60405180910390f35b610113600480360381019061010e919061129e565b610821565b005b61012f600480360381019061012a9190610d3d565b6109b2565b60405161014499989796959493929190610e53565b60405180910390f35b600080600060606000606080600060606000805490508a106101a4576040517f08c379a000000000000000000000000000000000000000000000000000000000815260040161019b90611436565b60405180910390fd5b6000808b815481106101b9576101b8611456565b5b906000526020600020906009020160405180610120016040529081600082015481526020016001820160009054906101000a900473ffffffffffffffffffffffffffffffffffffffff1673ffffffffffffffffffffffffffffffffffffffff1673ffffffffffffffffffffffffffffffffffffffff1681526020016002820154815260200160038201805461024d906114b4565b80601f0160208091040260200160405190810160405280929190818152602001828054610279906114b4565b80156102c65780601f1061029b576101008083540402835291602001916102c6565b820191906000526020600020905b8154815290600101906020018083116102a957829003601f168201915b50505050508152602001600482015481526020016005820180546102e9906114b4565b80601f0160208091040260200160405190810160405280929190818152602001828054610315906114b4565b80156103625780601f1061033757610100808354040283529160200191610362565b820191906000526020600020905b81548152906001019060200180831161034557829003601f168201915b5050505050815260200160068201805461037b906114b4565b80601f01602080910402602001604051908101604052809291908181526020018280546103a7906114b4565b80156103f45780601f106103c9576101008083540402835291602001916103f4565b820191906000526020600020905b8154815290600101906020018083116103d757829003601f168201915b5050505050815260200160078201548152602001600882018054610417906114b4565b80601f0160208091040260200160405190810160405280929190818152602001828054610443906114b4565b80156104905780601f1061046557610100808354040283529160200191610490565b820191906000526020600020905b81548152906001019060200180831161047357829003601f168201915b5050505050815250509050806000015181602001518260400151836060015184608001518560a001518660c001518760e00151886101000151995099509950995099509950995099509950509193959799909294969850565b60015481565b60606000805480602002602001604051908101604052809291908181526020016000905b8282101561080c578382906000526020600020906009020160405180610120016040529081600082015481526020016001820160009054906101000a900473ffffffffffffffffffffffffffffffffffffffff1673ffffffffffffffffffffffffffffffffffffffff1673ffffffffffffffffffffffffffffffffffffffff168152602001600282015481526020016003820180546105b1906114b4565b80601f01602080910402602001604051908101604052809291908181526020018280546105dd906114b4565b801561062a5780601f106105ff5761010080835404028352916020019161062a565b820191906000526020600020905b81548152906001019060200180831161060d57829003601f168201915b505050505081526020016004820154815260200160058201805461064d906114b4565b80601f0160208091040260200160405190810160405280929190818152602001828054610679906114b4565b80156106c65780601f1061069b576101008083540402835291602001916106c6565b820191906000526020600020905b8154815290600101906020018083116106a957829003601f168201915b505050505081526020016006820180546106df906114b4565b80601f016020809104026020016040519081016040528092919081815260200182805461070b906114b4565b80156107585780601f1061072d57610100808354040283529160200191610758565b820191906000526020600020905b81548152906001019060200180831161073b57829003601f168201915b505050505081526020016007820154815260200160088201805461077b906114b4565b80601f01602080910402602001604051908101604052809291908181526020018280546107a7906114b4565b80156107f45780601f106107c9576101008083540402835291602001916107f4565b820191906000526020600020905b8154815290600101906020018083116107d757829003601f168201915b50505050508152505081526020019060010190610513565b50505050905090565b60008080549050905090565b6001600081548092919061083490611514565b9190505550600060405180610120016040528060015481526020018a73ffffffffffffffffffffffffffffffffffffffff16815260200189815260200188815260200187815260200186815260200185815260200184815260200183815250905060008190806001815401808255809150506001900390600052602060002090600902016000909190919091506000820151816000015560208201518160010160006101000a81548173ffffffffffffffffffffffffffffffffffffffff021916908373ffffffffffffffffffffffffffffffffffffffff160217905550604082015181600201556060820151816003019080519060200190610938929190610c50565b506080820151816004015560a082015181600501908051906020019061095f929190610c50565b5060c082015181600601908051906020019061097c929190610c50565b5060e082015181600701556101008201518160080190805190602001906109a4929190610c50565b505050505050505050505050565b600081815481106109c257600080fd5b90600052602060002090600902016000915090508060000154908060010160009054906101000a900473ffffffffffffffffffffffffffffffffffffffff1690806002015490806003018054610a17906114b4565b80601f0160208091040260200160405190810160405280929190818152602001828054610a43906114b4565b8015610a905780601f10610a6557610100808354040283529160200191610a90565b820191906000526020600020905b815481529060010190602001808311610a7357829003601f168201915b505050505090806004015490806005018054610aab906114b4565b80601f0160208091040260200160405190810160405280929190818152602001828054610ad7906114b4565b8015610b245780601f10610af957610100808354040283529160200191610b24565b820191906000526020600020905b815481529060010190602001808311610b0757829003601f168201915b505050505090806006018054610b39906114b4565b80601f0160208091040260200160405190810160405280929190818152602001828054610b65906114b4565b8015610bb25780601f10610b8757610100808354040283529160200191610bb2565b820191906000526020600020905b815481529060010190602001808311610b9557829003601f168201915b505050505090806007015490806008018054610bcd906114b4565b80601f0160208091040260200160405190810160405280929190818152602001828054610bf9906114b4565b8015610c465780601f10610c1b57610100808354040283529160200191610c46565b820191906000526020600020905b815481529060010190602001808311610c2957829003601f168201915b5050505050905089565b828054610c5c906114b4565b90600052602060002090601f016020900481019282610c7e5760008555610cc5565b82601f10610c9757805160ff1916838001178555610cc5565b82800160010185558215610cc5579182015b82811115610cc4578251825591602001919060010190610ca9565b5b509050610cd29190610cd6565b5090565b5b80821115610cef576000816000905550600101610cd7565b5090565b6000604051905090565b600080fd5b600080fd5b6000819050919050565b610d1a81610d07565b8114610d2557600080fd5b50565b600081359050610d3781610d11565b92915050565b600060208284031215610d5357610d52610cfd565b5b6000610d6184828501610d28565b91505092915050565b610d7381610d07565b82525050565b600073ffffffffffffffffffffffffffffffffffffffff82169050919050565b6000610da482610d79565b9050919050565b610db481610d99565b82525050565b600081519050919050565b600082825260208201905092915050565b60005b83811015610df4578082015181840152602081019050610dd9565b83811115610e03576000848401525b50505050565b6000601f19601f8301169050919050565b6000610e2582610dba565b610e2f8185610dc5565b9350610e3f818560208601610dd6565b610e4881610e09565b840191505092915050565b600061012082019050610e69600083018c610d6a565b610e76602083018b610dab565b610e83604083018a610d6a565b8181036060830152610e958189610e1a565b9050610ea46080830188610d6a565b81810360a0830152610eb68187610e1a565b905081810360c0830152610eca8186610e1a565b9050610ed960e0830185610d6a565b818103610100830152610eec8184610e1a565b90509a9950505050505050505050565b6000602082019050610f116000830184610d6a565b92915050565b600081519050919050565b600082825260208201905092915050565b6000819050602082019050919050565b610f4c81610d07565b82525050565b610f5b81610d99565b82525050565b600082825260208201905092915050565b6000610f7d82610dba565b610f878185610f61565b9350610f97818560208601610dd6565b610fa081610e09565b840191505092915050565b600061012083016000830151610fc46000860182610f43565b506020830151610fd76020860182610f52565b506040830151610fea6040860182610f43565b50606083015184820360608601526110028282610f72565b91505060808301516110176080860182610f43565b5060a083015184820360a086015261102f8282610f72565b91505060c083015184820360c08601526110498282610f72565b91505060e083015161105e60e0860182610f43565b506101008301518482036101008601526110788282610f72565b9150508091505092915050565b60006110918383610fab565b905092915050565b6000602082019050919050565b60006110b182610f17565b6110bb8185610f22565b9350836020820285016110cd85610f33565b8060005b8581101561110957848403895281516110ea8582611085565b94506110f583611099565b925060208a019950506001810190506110d1565b50829750879550505050505092915050565b6000602082019050818103600083015261113581846110a6565b905092915050565b61114681610d99565b811461115157600080fd5b50565b6000813590506111638161113d565b92915050565b600080fd5b600080fd5b7f4e487b7100000000000000000000000000000000000000000000000000000000600052604160045260246000fd5b6111ab82610e09565b810181811067ffffffffffffffff821117156111ca576111c9611173565b5b80604052505050565b60006111dd610cf3565b90506111e982826111a2565b919050565b600067ffffffffffffffff82111561120957611208611173565b5b61121282610e09565b9050602081019050919050565b82818337600083830152505050565b600061124161123c846111ee565b6111d3565b90508281526020810184848401111561125d5761125c61116e565b5b61126884828561121f565b509392505050565b600082601f83011261128557611284611169565b5b813561129584826020860161122e565b91505092915050565b600080600080600080600080610100898b0312156112bf576112be610cfd565b5b60006112cd8b828c01611154565b98505060206112de8b828c01610d28565b975050604089013567ffffffffffffffff8111156112ff576112fe610d02565b5b61130b8b828c01611270565b965050606061131c8b828c01610d28565b955050608089013567ffffffffffffffff81111561133d5761133c610d02565b5b6113498b828c01611270565b94505060a089013567ffffffffffffffff81111561136a57611369610d02565b5b6113768b828c01611270565b93505060c06113878b828c01610d28565b92505060e089013567ffffffffffffffff8111156113a8576113a7610d02565b5b6113b48b828c01611270565b9150509295985092959890939650565b7f4c27696e6465782065737420656e206465686f7273206465206c6120706c616760008201527f6500000000000000000000000000000000000000000000000000000000000000602082015250565b6000611420602183610dc5565b915061142b826113c4565b604082019050919050565b6000602082019050818103600083015261144f81611413565b9050919050565b7f4e487b7100000000000000000000000000000000000000000000000000000000600052603260045260246000fd5b7f4e487b7100000000000000000000000000000000000000000000000000000000600052602260045260246000fd5b600060028204905060018216806114cc57607f821691505b6020821081036114df576114de611485565b5b50919050565b7f4e487b7100000000000000000000000000000000000000000000000000000000600052601160045260246000fd5b600061151f82610d07565b91507fffffffffffffffffffffffffffffffffffffffffffffffffffffffffffffffff8203611551576115506114e5565b5b60018201905091905056fea26469706673582212201ab0ae3ab0229bc0f952f14f29540d944ca6824aa0c9193497a52351038fe87164736f6c634300080d0033",
  "immutableReferences": {},
  "source": "// SPDX-License-Identifier: MIT\npragma solidity ^0.8.13;\n\ncontract ContratSoumissions {\n    // Structure pour stocker les informations de soumission\n    \n    struct Soumission {\n        uint numeroSoumission;\n        address soumissionaire; // Adresse de la personne ayant soumis la soumission\n        uint256 numeroContrat; // Numro du contrat associ  la soumission\n        string nom;\n        uint256 coutTotal;\n        string delaiRealisation;\n        string solution;\n        uint256 garantie;\n        string references;\n    }\n    \n    // Tableau pour stocker toutes les soumissions\n    Soumission[] public soumissions;\n    uint public offreCount;\n    \n    // Fonction pour ajouter une nouvelle soumission\n    function ajouterSoumission(\n        address _soumissionaire,\n        uint256 _numeroContrat,\n        string memory _nom,\n        uint256 _coutTotal,\n        string memory _delaiRealisation,\n        string memory _solution,\n        uint256 _garantie,\n        string memory _references\n    ) public  {\n        offreCount++;\n        // Crer une nouvelle instance de la structure Soumission\n        Soumission memory nouvelleSoumission = Soumission({\n            numeroSoumission: offreCount,\n            soumissionaire: _soumissionaire,\n            numeroContrat: _numeroContrat,\n            nom: _nom,\n            coutTotal: _coutTotal,\n            delaiRealisation: _delaiRealisation,\n            solution: _solution,\n            garantie: _garantie,\n            references: _references\n        });\n        \n        // Ajouter la nouvelle soumission au tableau\n        soumissions.push(nouvelleSoumission);\n    }\n\n    // Fonction pour obtenir le nombre total de soumissions\n    function nombreSoumissions() public view returns (uint256) {\n        return soumissions.length;\n    }\n\n    // Fonction pour obtenir les informations d'une soumission par son index\n    function obtenirSoumissionParIndex(uint256 index) public view returns (\n        uint numeroSoumission,\n        address soumissionaire,\n        uint256 numeroContrat,\n        string memory nom,\n        uint256 coutTotal,\n        string memory delaiRealisation,\n        string memory solution,\n        uint256 garantie,\n        string memory references\n    ) {\n        require(index < soumissions.length, \"L'index est en dehors de la plage\");\n        Soumission memory soumission = soumissions[index];\n        return (\n             soumission.numeroSoumission,\n            soumission.soumissionaire,\n            soumission.numeroContrat,\n            soumission.nom,\n            soumission.coutTotal,\n            soumission.delaiRealisation,\n            soumission.solution,\n            soumission.garantie,\n            soumission.references\n        );\n    }\n\n    // Fonction pour obtenir la liste de toutes les soumissions\n    function listeToutesSoumissions() public view returns (Soumission[] memory) {\n        return soumissions;\n    }\n}\n",
  "sourcePath": "/home/yaki/projet/PROJET-BLOCKCHAIN/smartcontract/contracts/ContratSoumissions.sol",
  "compiler": {
    "name": "solc",
    "version": "0.8.13+commit.abaa5c0e.Emscripten.clang"
  },
  "schemaVersion": "3.4.16",
  "updatedAt": "2024-05-27T15:54:05.653Z",
  "networkType": "ethereum",
  "devdoc": {
    "kind": "dev",
    "methods": {},
    "version": 1
  },
  "userdoc": {
    "kind": "user",
    "methods": {},
    "version": 1
  }
}