{
  "contractName": "AppelOffres",
  "abi": [
    {
      "anonymous": false,
      "inputs": [
        {
          "indexed": false,
          "internalType": "uint256",
          "name": "numero",
          "type": "uint256"
        },
        {
          "indexed": false,
          "internalType": "string",
          "name": "titre",
          "type": "string"
        },
        {
          "indexed": false,
          "internalType": "string",
          "name": "description",
          "type": "string"
        },
        {
          "indexed": false,
          "internalType": "string",
          "name": "societe",
          "type": "string"
        },
        {
          "indexed": false,
          "internalType": "uint256",
          "name": "datePublication",
          "type": "uint256"
        },
        {
          "indexed": false,
          "internalType": "uint256",
          "name": "dateCloture",
          "type": "uint256"
        }
      ],
      "name": "OffreCree",
      "type": "event"
    },
    {
      "inputs": [],
      "name": "offreCount",
      "outputs": [
        {
          "internalType": "uint256",
          "name": "",
          "type": "uint256"
        }
      ],
      "stateMutability": "view",
      "type": "function",
      "constant": true
    },
    {
      "inputs": [],
      "name": "getOffreCount",
      "outputs": [
        {
          "internalType": "uint256",
          "name": "",
          "type": "uint256"
        }
      ],
      "stateMutability": "view",
      "type": "function",
      "constant": true
    },
    {
      "inputs": [
        {
          "internalType": "string",
          "name": "_titre",
          "type": "string"
        },
        {
          "internalType": "string",
          "name": "_description",
          "type": "string"
        },
        {
          "internalType": "string",
          "name": "_societe",
          "type": "string"
        },
        {
          "internalType": "uint256",
          "name": "_datePublication",
          "type": "uint256"
        },
        {
          "internalType": "uint256",
          "name": "_dateCloture",
          "type": "uint256"
        }
      ],
      "name": "creerOffre",
      "outputs": [],
      "stateMutability": "nonpayable",
      "type": "function"
    },
    {
      "inputs": [],
      "name": "getAllOffres",
      "outputs": [
        {
          "components": [
            {
              "internalType": "uint256",
              "name": "numero",
              "type": "uint256"
            },
            {
              "internalType": "string",
              "name": "titre",
              "type": "string"
            },
            {
              "internalType": "string",
              "name": "description",
              "type": "string"
            },
            {
              "internalType": "string",
              "name": "societe",
              "type": "string"
            },
            {
              "internalType": "uint256",
              "name": "datePublication",
              "type": "uint256"
            },
            {
              "internalType": "uint256",
              "name": "dateCloture",
              "type": "uint256"
            }
          ],
          "internalType": "struct AppelOffres.Offre[]",
          "name": "",
          "type": "tuple[]"
        }
      ],
      "stateMutability": "view",
      "type": "function",
      "constant": true
    },
    {
      "inputs": [
        {
          "internalType": "uint256",
          "name": "_numero",
          "type": "uint256"
        }
      ],
      "name": "getOffre",
      "outputs": [
        {
          "components": [
            {
              "internalType": "uint256",
              "name": "numero",
              "type": "uint256"
            },
            {
              "internalType": "string",
              "name": "titre",
              "type": "string"
            },
            {
              "internalType": "string",
              "name": "description",
              "type": "string"
            },
            {
              "internalType": "string",
              "name": "societe",
              "type": "string"
            },
            {
              "internalType": "uint256",
              "name": "datePublication",
              "type": "uint256"
            },
            {
              "internalType": "uint256",
              "name": "dateCloture",
              "type": "uint256"
            }
          ],
          "internalType": "struct AppelOffres.Offre",
          "name": "",
          "type": "tuple"
        }
      ],
      "stateMutability": "view",
      "type": "function",
      "constant": true
    },
    {
      "inputs": [
        {
          "internalType": "uint256",
          "name": "_numero",
          "type": "uint256"
        }
      ],
      "name": "getDescriptionOffre",
      "outputs": [
        {
          "internalType": "string",
          "name": "",
          "type": "string"
        }
      ],
      "stateMutability": "view",
      "type": "function",
      "constant": true
    }
  ],
  "bytecode": "0x608060405234801561001057600080fd5b5061116d806100206000396000f3fe608060405234801561001057600080fd5b50600436106100625760003560e01c8063129db468146100675780633051d075146100855780634433920b146100a35780637ca48104146100c157806380840dfc146100dd578063c6a09cb91461010d575b600080fd5b61006f61013d565b60405161007c9190610b39565b60405180910390f35b61008d6103df565b60405161009a9190610b6a565b60405180910390f35b6100ab6103e9565b6040516100b89190610b6a565b60405180910390f35b6100db60048036038101906100d69190610cfa565b6103ef565b005b6100f760048036038101906100f29190610dc9565b61050c565b6040516101049190610e8d565b60405180910390f35b61012760048036038101906101229190610dc9565b61075d565b6040516101349190610ef9565b60405180910390f35b6060600060015467ffffffffffffffff81111561015d5761015c610ba3565b5b60405190808252806020026020018201604052801561019657816020015b610183610855565b81526020019060019003908161017b5790505b5090506000600190505b60015481116103d7576000808281526020019081526020016000206040518060c0016040529081600082015481526020016001820180546101e090610f4a565b80601f016020809104026020016040519081016040528092919081815260200182805461020c90610f4a565b80156102595780601f1061022e57610100808354040283529160200191610259565b820191906000526020600020905b81548152906001019060200180831161023c57829003601f168201915b5050505050815260200160028201805461027290610f4a565b80601f016020809104026020016040519081016040528092919081815260200182805461029e90610f4a565b80156102eb5780601f106102c0576101008083540402835291602001916102eb565b820191906000526020600020905b8154815290600101906020018083116102ce57829003601f168201915b5050505050815260200160038201805461030490610f4a565b80601f016020809104026020016040519081016040528092919081815260200182805461033090610f4a565b801561037d5780601f106103525761010080835404028352916020019161037d565b820191906000526020600020905b81548152906001019060200180831161036057829003601f168201915b5050505050815260200160048201548152602001600582015481525050826001836103a89190610faa565b815181106103b9576103b8610fde565b5b602002602001018190525080806103cf9061100d565b9150506101a0565b508091505090565b6000600154905090565b60015481565b600160008154809291906104029061100d565b91905055506040518060c00160405280600154815260200186815260200185815260200184815260200183815260200182815250600080600154815260200190815260200160002060008201518160000155602082015181600101908051906020019061047092919061088b565b50604082015181600201908051906020019061048d92919061088b565b5060608201518160030190805190602001906104aa92919061088b565b506080820151816004015560a082015181600501559050507f18b3a4434e251c777dcdeb28ce5890737717753fbd3a2d7b982b80a0575d794a60015486868686866040516104fd96959493929190611055565b60405180910390a15050505050565b610514610855565b60015482111580156105265750600082115b610565576040517f08c379a000000000000000000000000000000000000000000000000000000000815260040161055c90611117565b60405180910390fd5b6000808381526020019081526020016000206040518060c00160405290816000820154815260200160018201805461059c90610f4a565b80601f01602080910402602001604051908101604052809291908181526020018280546105c890610f4a565b80156106155780601f106105ea57610100808354040283529160200191610615565b820191906000526020600020905b8154815290600101906020018083116105f857829003601f168201915b5050505050815260200160028201805461062e90610f4a565b80601f016020809104026020016040519081016040528092919081815260200182805461065a90610f4a565b80156106a75780601f1061067c576101008083540402835291602001916106a7565b820191906000526020600020905b81548152906001019060200180831161068a57829003601f168201915b505050505081526020016003820180546106c090610f4a565b80601f01602080910402602001604051908101604052809291908181526020018280546106ec90610f4a565b80156107395780601f1061070e57610100808354040283529160200191610739565b820191906000526020600020905b81548152906001019060200180831161071c57829003601f168201915b50505050508152602001600482015481526020016005820154815250509050919050565b606060015482111580156107715750600082115b6107b0576040517f08c379a00000000000000000000000000000000000000000000000000000000081526004016107a790611117565b60405180910390fd5b60008083815260200190815260200160002060020180546107d090610f4a565b80601f01602080910402602001604051908101604052809291908181526020018280546107fc90610f4a565b80156108495780601f1061081e57610100808354040283529160200191610849565b820191906000526020600020905b81548152906001019060200180831161082c57829003601f168201915b50505050509050919050565b6040518060c001604052806000815260200160608152602001606081526020016060815260200160008152602001600081525090565b82805461089790610f4a565b90600052602060002090601f0160209004810192826108b95760008555610900565b82601f106108d257805160ff1916838001178555610900565b82800160010185558215610900579182015b828111156108ff5782518255916020019190600101906108e4565b5b50905061090d9190610911565b5090565b5b8082111561092a576000816000905550600101610912565b5090565b600081519050919050565b600082825260208201905092915050565b6000819050602082019050919050565b6000819050919050565b61096d8161095a565b82525050565b600081519050919050565b600082825260208201905092915050565b60005b838110156109ad578082015181840152602081019050610992565b838111156109bc576000848401525b50505050565b6000601f19601f8301169050919050565b60006109de82610973565b6109e8818561097e565b93506109f881856020860161098f565b610a01816109c2565b840191505092915050565b600060c083016000830151610a246000860182610964565b5060208301518482036020860152610a3c82826109d3565b91505060408301518482036040860152610a5682826109d3565b91505060608301518482036060860152610a7082826109d3565b9150506080830151610a856080860182610964565b5060a0830151610a9860a0860182610964565b508091505092915050565b6000610aaf8383610a0c565b905092915050565b6000602082019050919050565b6000610acf8261092e565b610ad98185610939565b935083602082028501610aeb8561094a565b8060005b85811015610b275784840389528151610b088582610aa3565b9450610b1383610ab7565b925060208a01995050600181019050610aef565b50829750879550505050505092915050565b60006020820190508181036000830152610b538184610ac4565b905092915050565b610b648161095a565b82525050565b6000602082019050610b7f6000830184610b5b565b92915050565b6000604051905090565b600080fd5b600080fd5b600080fd5b600080fd5b7f4e487b7100000000000000000000000000000000000000000000000000000000600052604160045260246000fd5b610bdb826109c2565b810181811067ffffffffffffffff82111715610bfa57610bf9610ba3565b5b80604052505050565b6000610c0d610b85565b9050610c198282610bd2565b919050565b600067ffffffffffffffff821115610c3957610c38610ba3565b5b610c42826109c2565b9050602081019050919050565b82818337600083830152505050565b6000610c71610c6c84610c1e565b610c03565b905082815260208101848484011115610c8d57610c8c610b9e565b5b610c98848285610c4f565b509392505050565b600082601f830112610cb557610cb4610b99565b5b8135610cc5848260208601610c5e565b91505092915050565b610cd78161095a565b8114610ce257600080fd5b50565b600081359050610cf481610cce565b92915050565b600080600080600060a08688031215610d1657610d15610b8f565b5b600086013567ffffffffffffffff811115610d3457610d33610b94565b5b610d4088828901610ca0565b955050602086013567ffffffffffffffff811115610d6157610d60610b94565b5b610d6d88828901610ca0565b945050604086013567ffffffffffffffff811115610d8e57610d8d610b94565b5b610d9a88828901610ca0565b9350506060610dab88828901610ce5565b9250506080610dbc88828901610ce5565b9150509295509295909350565b600060208284031215610ddf57610dde610b8f565b5b6000610ded84828501610ce5565b91505092915050565b600060c083016000830151610e0e6000860182610964565b5060208301518482036020860152610e2682826109d3565b91505060408301518482036040860152610e4082826109d3565b91505060608301518482036060860152610e5a82826109d3565b9150506080830151610e6f6080860182610964565b5060a0830151610e8260a0860182610964565b508091505092915050565b60006020820190508181036000830152610ea78184610df6565b905092915050565b600082825260208201905092915050565b6000610ecb82610973565b610ed58185610eaf565b9350610ee581856020860161098f565b610eee816109c2565b840191505092915050565b60006020820190508181036000830152610f138184610ec0565b905092915050565b7f4e487b7100000000000000000000000000000000000000000000000000000000600052602260045260246000fd5b60006002820490506001821680610f6257607f821691505b602082108103610f7557610f74610f1b565b5b50919050565b7f4e487b7100000000000000000000000000000000000000000000000000000000600052601160045260246000fd5b6000610fb58261095a565b9150610fc08361095a565b925082821015610fd357610fd2610f7b565b5b828203905092915050565b7f4e487b7100000000000000000000000000000000000000000000000000000000600052603260045260246000fd5b60006110188261095a565b91507fffffffffffffffffffffffffffffffffffffffffffffffffffffffffffffffff820361104a57611049610f7b565b5b600182019050919050565b600060c08201905061106a6000830189610b5b565b818103602083015261107c8188610ec0565b905081810360408301526110908187610ec0565b905081810360608301526110a48186610ec0565b90506110b36080830185610b5b565b6110c060a0830184610b5b565b979650505050505050565b7f4f66667265206e6f6e2074726f75766565000000000000000000000000000000600082015250565b6000611101601183610eaf565b915061110c826110cb565b602082019050919050565b60006020820190508181036000830152611130816110f4565b905091905056fea2646970667358221220fb5bff9c916c2c1287194bd5c323811d9afa94fdc50eecf65f7609591bdf2ef264736f6c634300080d0033",
  "immutableReferences": {},
  "source": "// SPDX-License-Identifier: MIT\npragma solidity ^0.8.13;\n\ncontract AppelOffres {\n\n    // Structure pour stocker les dtails de l'appel d'offres\n    struct Offre {\n        uint numero;\n        string titre;\n        string description;\n        string societe;\n        uint datePublication;\n        uint dateCloture;\n    }\n\n    // Tableau des offres\n    mapping(uint =>Offre) offres;\n    uint public offreCount;\n\n    event OffreCree(uint numero, string titre, string description, string societe, uint datePublication, uint dateCloture);\n\n    function getOffreCount() public view returns(uint) {\n        return offreCount;\n    }\n\n    // Fonction pour crer un nouvel appel d'offres\n    function creerOffre(\n        string memory _titre,\n        string memory _description,\n        string memory _societe,\n        uint _datePublication,\n        uint _dateCloture\n    ) public {\n        offreCount++;\n\n        offres[offreCount] = Offre(offreCount, _titre, _description, _societe, _datePublication, _dateCloture);\n        emit OffreCree(offreCount, _titre, _description, _societe, _datePublication, _dateCloture);\n    }\n\n    // Fonction pour rcuprer toutes les offres\n    function getAllOffres() public view returns(Offre[] memory) {\n        Offre[] memory result = new Offre[](offreCount);\n        for(uint i = 1; i <= offreCount; i++){\n            result[i - 1] = offres[i];\n        }\n        return result;\n    }\n\n    // Fonction pour obtenir les dtails d'une offre\n    function getOffre(uint _numero) public view returns (Offre memory) {\n        require(_numero <= offreCount && _numero > 0, \"Offre non trouvee\");\n        return offres[_numero];\n    }\n\n\n    // Fonction pour obtenir la description d'une offre\n    function getDescriptionOffre(uint _numero) public view returns(string memory){\n        require(_numero <= offreCount && _numero > 0, \"Offre non trouvee\");\n        return offres[_numero].description;\n    }\n}\n",
  "sourcePath": "/home/yaki/projet/PROJET-BLOCKCHAIN/smartcontract/contracts/AppelOffres.sol",
  "compiler": {
    "name": "solc",
    "version": "0.8.13+commit.abaa5c0e.Emscripten.clang"
  },
  "schemaVersion": "3.4.16",
  "updatedAt": "2024-06-26T09:48:11.008Z",
  "networkType": "ethereum",
  "devdoc": {
    "kind": "dev",
    "methods": {},
    "version": 1
  },
  "userdoc": {
    "kind": "user",
    "methods": {},
    "version": 1
  }
}