{
  "contractName": "ContratSoumissions",
  "abi": [
    {
      "inputs": [],
      "name": "offreCount",
      "outputs": [
        {
          "internalType": "uint256",
          "name": "",
          "type": "uint256"
        }
      ],
      "stateMutability": "view",
      "type": "function",
      "constant": true
    },
    {
      "inputs": [
        {
          "internalType": "uint256",
          "name": "",
          "type": "uint256"
        }
      ],
      "name": "soumissions",
      "outputs": [
        {
          "internalType": "uint256",
          "name": "numeroSoumission",
          "type": "uint256"
        },
        {
          "internalType": "address",
          "name": "soumissionaire",
          "type": "address"
        },
        {
          "internalType": "uint256",
          "name": "numeroContrat",
          "type": "uint256"
        },
        {
          "internalType": "string",
          "name": "nom",
          "type": "string"
        },
        {
          "internalType": "string",
          "name": "telephone",
          "type": "string"
        },
        {
          "internalType": "string",
          "name": "coutTotal",
          "type": "string"
        },
        {
          "internalType": "string",
          "name": "delaiRealisation",
          "type": "string"
        },
        {
          "internalType": "string",
          "name": "references",
          "type": "string"
        }
      ],
      "stateMutability": "view",
      "type": "function",
      "constant": true
    },
    {
      "inputs": [
        {
          "internalType": "address",
          "name": "_soumissionaire",
          "type": "address"
        },
        {
          "internalType": "uint256",
          "name": "_numeroContrat",
          "type": "uint256"
        },
        {
          "internalType": "string",
          "name": "_nom",
          "type": "string"
        },
        {
          "internalType": "string",
          "name": "_telephone",
          "type": "string"
        },
        {
          "internalType": "string",
          "name": "_coutTotal",
          "type": "string"
        },
        {
          "internalType": "string",
          "name": "_delaiRealisation",
          "type": "string"
        },
        {
          "internalType": "string",
          "name": "_references",
          "type": "string"
        }
      ],
      "name": "ajouterSoumission",
      "outputs": [],
      "stateMutability": "nonpayable",
      "type": "function"
    },
    {
      "inputs": [],
      "name": "nombreSoumissions",
      "outputs": [
        {
          "internalType": "uint256",
          "name": "",
          "type": "uint256"
        }
      ],
      "stateMutability": "view",
      "type": "function",
      "constant": true
    },
    {
      "inputs": [
        {
          "internalType": "uint256",
          "name": "index",
          "type": "uint256"
        }
      ],
      "name": "obtenirSoumissionParIndex",
      "outputs": [
        {
          "internalType": "uint256",
          "name": "numeroSoumission",
          "type": "uint256"
        },
        {
          "internalType": "address",
          "name": "soumissionaire",
          "type": "address"
        },
        {
          "internalType": "uint256",
          "name": "numeroContrat",
          "type": "uint256"
        },
        {
          "internalType": "string",
          "name": "nom",
          "type": "string"
        },
        {
          "internalType": "string",
          "name": "telephone",
          "type": "string"
        },
        {
          "internalType": "string",
          "name": "coutTotal",
          "type": "string"
        },
        {
          "internalType": "string",
          "name": "delaiRealisation",
          "type": "string"
        },
        {
          "internalType": "string",
          "name": "references",
          "type": "string"
        }
      ],
      "stateMutability": "view",
      "type": "function",
      "constant": true
    },
    {
      "inputs": [],
      "name": "listeToutesSoumissions",
      "outputs": [
        {
          "components": [
            {
              "internalType": "uint256",
              "name": "numeroSoumission",
              "type": "uint256"
            },
            {
              "internalType": "address",
              "name": "soumissionaire",
              "type": "address"
            },
            {
              "internalType": "uint256",
              "name": "numeroContrat",
              "type": "uint256"
            },
            {
              "internalType": "string",
              "name": "nom",
              "type": "string"
            },
            {
              "internalType": "string",
              "name": "telephone",
              "type": "string"
            },
            {
              "internalType": "string",
              "name": "coutTotal",
              "type": "string"
            },
            {
              "internalType": "string",
              "name": "delaiRealisation",
              "type": "string"
            },
            {
              "internalType": "string",
              "name": "references",
              "type": "string"
            }
          ],
          "internalType": "struct ContratSoumissions.Soumission[]",
          "name": "",
          "type": "tuple[]"
        }
      ],
      "stateMutability": "view",
      "type": "function",
      "constant": true
    }
  ],
  "bytecode": "0x608060405234801561001057600080fd5b506116f4806100206000396000f3fe608060405234801561001057600080fd5b50600436106100625760003560e01c80633dafb7a0146100675780634433920b1461009e5780634a0cdfc8146100bc5780635fe25f28146100da578063bf7bb944146100f8578063dff9447214610114575b600080fd5b610081600480360381019061007c9190610ead565b61014b565b604051610095989796959493929190610fc3565b60405180910390f35b6100a6610558565b6040516100b39190611064565b60405180910390f35b6100c461055e565b6040516100d19190611275565b60405180910390f35b6100e2610902565b6040516100ef9190611064565b60405180910390f35b610112600480360381019061010d91906113f8565b61090e565b005b61012e60048036038101906101299190610ead565b610aa0565b604051610142989796959493929190610fc3565b60405180910390f35b60008060006060806060806060600080549050891061019f576040517f08c379a000000000000000000000000000000000000000000000000000000000815260040161019690611598565b60405180910390fd5b6000808a815481106101b4576101b36115b8565b5b906000526020600020906008020160405180610100016040529081600082015481526020016001820160009054906101000a900473ffffffffffffffffffffffffffffffffffffffff1673ffffffffffffffffffffffffffffffffffffffff1673ffffffffffffffffffffffffffffffffffffffff1681526020016002820154815260200160038201805461024890611616565b80601f016020809104026020016040519081016040528092919081815260200182805461027490611616565b80156102c15780601f10610296576101008083540402835291602001916102c1565b820191906000526020600020905b8154815290600101906020018083116102a457829003601f168201915b505050505081526020016004820180546102da90611616565b80601f016020809104026020016040519081016040528092919081815260200182805461030690611616565b80156103535780601f1061032857610100808354040283529160200191610353565b820191906000526020600020905b81548152906001019060200180831161033657829003601f168201915b5050505050815260200160058201805461036c90611616565b80601f016020809104026020016040519081016040528092919081815260200182805461039890611616565b80156103e55780601f106103ba576101008083540402835291602001916103e5565b820191906000526020600020905b8154815290600101906020018083116103c857829003601f168201915b505050505081526020016006820180546103fe90611616565b80601f016020809104026020016040519081016040528092919081815260200182805461042a90611616565b80156104775780601f1061044c57610100808354040283529160200191610477565b820191906000526020600020905b81548152906001019060200180831161045a57829003601f168201915b5050505050815260200160078201805461049090611616565b80601f01602080910402602001604051908101604052809291908181526020018280546104bc90611616565b80156105095780601f106104de57610100808354040283529160200191610509565b820191906000526020600020905b8154815290600101906020018083116104ec57829003601f168201915b5050505050815250509050806000015181602001518260400151836060015184608001518560a001518660c001518760e001519850985098509850985098509850985050919395975091939597565b60015481565b60606000805480602002602001604051908101604052809291908181526020016000905b828210156108f9578382906000526020600020906008020160405180610100016040529081600082015481526020016001820160009054906101000a900473ffffffffffffffffffffffffffffffffffffffff1673ffffffffffffffffffffffffffffffffffffffff1673ffffffffffffffffffffffffffffffffffffffff1681526020016002820154815260200160038201805461062090611616565b80601f016020809104026020016040519081016040528092919081815260200182805461064c90611616565b80156106995780601f1061066e57610100808354040283529160200191610699565b820191906000526020600020905b81548152906001019060200180831161067c57829003601f168201915b505050505081526020016004820180546106b290611616565b80601f01602080910402602001604051908101604052809291908181526020018280546106de90611616565b801561072b5780601f106107005761010080835404028352916020019161072b565b820191906000526020600020905b81548152906001019060200180831161070e57829003601f168201915b5050505050815260200160058201805461074490611616565b80601f016020809104026020016040519081016040528092919081815260200182805461077090611616565b80156107bd5780601f10610792576101008083540402835291602001916107bd565b820191906000526020600020905b8154815290600101906020018083116107a057829003601f168201915b505050505081526020016006820180546107d690611616565b80601f016020809104026020016040519081016040528092919081815260200182805461080290611616565b801561084f5780601f106108245761010080835404028352916020019161084f565b820191906000526020600020905b81548152906001019060200180831161083257829003601f168201915b5050505050815260200160078201805461086890611616565b80601f016020809104026020016040519081016040528092919081815260200182805461089490611616565b80156108e15780601f106108b6576101008083540402835291602001916108e1565b820191906000526020600020905b8154815290600101906020018083116108c457829003601f168201915b50505050508152505081526020019060010190610582565b50505050905090565b60008080549050905090565b6001600081548092919061092190611676565b9190505550600060405180610100016040528060015481526020018973ffffffffffffffffffffffffffffffffffffffff16815260200188815260200187815260200186815260200185815260200184815260200183815250905060008190806001815401808255809150506001900390600052602060002090600802016000909190919091506000820151816000015560208201518160010160006101000a81548173ffffffffffffffffffffffffffffffffffffffff021916908373ffffffffffffffffffffffffffffffffffffffff160217905550604082015181600201556060820151816003019080519060200190610a1f929190610dc0565b506080820151816004019080519060200190610a3c929190610dc0565b5060a0820151816005019080519060200190610a59929190610dc0565b5060c0820151816006019080519060200190610a76929190610dc0565b5060e0820151816007019080519060200190610a93929190610dc0565b5050505050505050505050565b60008181548110610ab057600080fd5b90600052602060002090600802016000915090508060000154908060010160009054906101000a900473ffffffffffffffffffffffffffffffffffffffff1690806002015490806003018054610b0590611616565b80601f0160208091040260200160405190810160405280929190818152602001828054610b3190611616565b8015610b7e5780601f10610b5357610100808354040283529160200191610b7e565b820191906000526020600020905b815481529060010190602001808311610b6157829003601f168201915b505050505090806004018054610b9390611616565b80601f0160208091040260200160405190810160405280929190818152602001828054610bbf90611616565b8015610c0c5780601f10610be157610100808354040283529160200191610c0c565b820191906000526020600020905b815481529060010190602001808311610bef57829003601f168201915b505050505090806005018054610c2190611616565b80601f0160208091040260200160405190810160405280929190818152602001828054610c4d90611616565b8015610c9a5780601f10610c6f57610100808354040283529160200191610c9a565b820191906000526020600020905b815481529060010190602001808311610c7d57829003601f168201915b505050505090806006018054610caf90611616565b80601f0160208091040260200160405190810160405280929190818152602001828054610cdb90611616565b8015610d285780601f10610cfd57610100808354040283529160200191610d28565b820191906000526020600020905b815481529060010190602001808311610d0b57829003601f168201915b505050505090806007018054610d3d90611616565b80601f0160208091040260200160405190810160405280929190818152602001828054610d6990611616565b8015610db65780601f10610d8b57610100808354040283529160200191610db6565b820191906000526020600020905b815481529060010190602001808311610d9957829003601f168201915b5050505050905088565b828054610dcc90611616565b90600052602060002090601f016020900481019282610dee5760008555610e35565b82601f10610e0757805160ff1916838001178555610e35565b82800160010185558215610e35579182015b82811115610e34578251825591602001919060010190610e19565b5b509050610e429190610e46565b5090565b5b80821115610e5f576000816000905550600101610e47565b5090565b6000604051905090565b600080fd5b600080fd5b6000819050919050565b610e8a81610e77565b8114610e9557600080fd5b50565b600081359050610ea781610e81565b92915050565b600060208284031215610ec357610ec2610e6d565b5b6000610ed184828501610e98565b91505092915050565b610ee381610e77565b82525050565b600073ffffffffffffffffffffffffffffffffffffffff82169050919050565b6000610f1482610ee9565b9050919050565b610f2481610f09565b82525050565b600081519050919050565b600082825260208201905092915050565b60005b83811015610f64578082015181840152602081019050610f49565b83811115610f73576000848401525b50505050565b6000601f19601f8301169050919050565b6000610f9582610f2a565b610f9f8185610f35565b9350610faf818560208601610f46565b610fb881610f79565b840191505092915050565b600061010082019050610fd9600083018b610eda565b610fe6602083018a610f1b565b610ff36040830189610eda565b81810360608301526110058188610f8a565b905081810360808301526110198187610f8a565b905081810360a083015261102d8186610f8a565b905081810360c08301526110418185610f8a565b905081810360e08301526110558184610f8a565b90509998505050505050505050565b60006020820190506110796000830184610eda565b92915050565b600081519050919050565b600082825260208201905092915050565b6000819050602082019050919050565b6110b481610e77565b82525050565b6110c381610f09565b82525050565b600082825260208201905092915050565b60006110e582610f2a565b6110ef81856110c9565b93506110ff818560208601610f46565b61110881610f79565b840191505092915050565b60006101008301600083015161112c60008601826110ab565b50602083015161113f60208601826110ba565b50604083015161115260408601826110ab565b506060830151848203606086015261116a82826110da565b9150506080830151848203608086015261118482826110da565b91505060a083015184820360a086015261119e82826110da565b91505060c083015184820360c08601526111b882826110da565b91505060e083015184820360e08601526111d282826110da565b9150508091505092915050565b60006111eb8383611113565b905092915050565b6000602082019050919050565b600061120b8261107f565b611215818561108a565b9350836020820285016112278561109b565b8060005b85811015611263578484038952815161124485826111df565b945061124f836111f3565b925060208a0199505060018101905061122b565b50829750879550505050505092915050565b6000602082019050818103600083015261128f8184611200565b905092915050565b6112a081610f09565b81146112ab57600080fd5b50565b6000813590506112bd81611297565b92915050565b600080fd5b600080fd5b7f4e487b7100000000000000000000000000000000000000000000000000000000600052604160045260246000fd5b61130582610f79565b810181811067ffffffffffffffff82111715611324576113236112cd565b5b80604052505050565b6000611337610e63565b905061134382826112fc565b919050565b600067ffffffffffffffff821115611363576113626112cd565b5b61136c82610f79565b9050602081019050919050565b82818337600083830152505050565b600061139b61139684611348565b61132d565b9050828152602081018484840111156113b7576113b66112c8565b5b6113c2848285611379565b509392505050565b600082601f8301126113df576113de6112c3565b5b81356113ef848260208601611388565b91505092915050565b600080600080600080600060e0888a03121561141757611416610e6d565b5b60006114258a828b016112ae565b97505060206114368a828b01610e98565b965050604088013567ffffffffffffffff81111561145757611456610e72565b5b6114638a828b016113ca565b955050606088013567ffffffffffffffff81111561148457611483610e72565b5b6114908a828b016113ca565b945050608088013567ffffffffffffffff8111156114b1576114b0610e72565b5b6114bd8a828b016113ca565b93505060a088013567ffffffffffffffff8111156114de576114dd610e72565b5b6114ea8a828b016113ca565b92505060c088013567ffffffffffffffff81111561150b5761150a610e72565b5b6115178a828b016113ca565b91505092959891949750929550565b7f4c27696e6465782065737420656e206465686f7273206465206c6120706c616760008201527f6500000000000000000000000000000000000000000000000000000000000000602082015250565b6000611582602183610f35565b915061158d82611526565b604082019050919050565b600060208201905081810360008301526115b181611575565b9050919050565b7f4e487b7100000000000000000000000000000000000000000000000000000000600052603260045260246000fd5b7f4e487b7100000000000000000000000000000000000000000000000000000000600052602260045260246000fd5b6000600282049050600182168061162e57607f821691505b602082108103611641576116406115e7565b5b50919050565b7f4e487b7100000000000000000000000000000000000000000000000000000000600052601160045260246000fd5b600061168182610e77565b91507fffffffffffffffffffffffffffffffffffffffffffffffffffffffffffffffff82036116b3576116b2611647565b5b60018201905091905056fea2646970667358221220cf5bd9e15b60d3bf66035779e849dafcbbf7f2b18240aeacabb612b45d5b21b464736f6c634300080d0033",
  "immutableReferences": {},
  "source": "// SPDX-License-Identifier: MIT\npragma solidity ^0.8.13;\n\ncontract ContratSoumissions {\n    // Structure pour stocker les informations de soumission\n    \n    struct Soumission {\n        uint numeroSoumission;\n        address soumissionaire; // Adresse de la personne ayant soumis la soumission\n        uint256 numeroContrat; // Numro du contrat associ  la soumission\n        string nom;\n        string telephone;\n        string coutTotal;\n        string delaiRealisation;\n        string references;\n    }\n    \n    // Tableau pour stocker toutes les soumissions\n    Soumission[] public soumissions;\n    uint public offreCount;\n    \n    // Fonction pour ajouter une nouvelle soumission\n    function ajouterSoumission(\n        address _soumissionaire,\n        uint256 _numeroContrat,\n        string memory _nom,\n        string memory _telephone,\n        string memory _coutTotal,\n        string memory _delaiRealisation,\n        string memory _references\n    ) public  {\n        offreCount++;\n        // Crer une nouvelle instance de la structure Soumission\n        Soumission memory nouvelleSoumission = Soumission({\n            numeroSoumission: offreCount,\n            soumissionaire: _soumissionaire,\n            numeroContrat: _numeroContrat,\n            nom: _nom,\n            telephone: _telephone,\n            coutTotal: _coutTotal,\n            delaiRealisation: _delaiRealisation,\n            references: _references\n        });\n        \n        // Ajouter la nouvelle soumission au tableau\n        soumissions.push(nouvelleSoumission);\n    }\n\n    // Fonction pour obtenir le nombre total de soumissions\n    function nombreSoumissions() public view returns (uint256) {\n        return soumissions.length;\n    }\n\n    // Fonction pour obtenir les informations d'une soumission par son index\n    function obtenirSoumissionParIndex(uint256 index) public view returns (\n        uint numeroSoumission,\n        address soumissionaire,\n        uint256 numeroContrat,\n        string memory nom,\n        string memory telephone,\n        string memory coutTotal,\n        string memory delaiRealisation,\n        string memory references\n    ) {\n        require(index < soumissions.length, \"L'index est en dehors de la plage\");\n        Soumission memory soumission = soumissions[index];\n        return (\n             soumission.numeroSoumission,\n            soumission.soumissionaire,\n            soumission.numeroContrat,\n            soumission.nom,\n            soumission.telephone,\n            soumission.coutTotal,\n            soumission.delaiRealisation,\n            soumission.references\n        );\n    }\n\n    // Fonction pour obtenir la liste de toutes les soumissions\n    function listeToutesSoumissions() public view returns (Soumission[] memory) {\n        return soumissions;\n    }\n}\n",
  "sourcePath": "/home/yaki/projet/PROJET-BLOCKCHAIN/smartcontract/contracts/ContratSoumissions.sol",
  "compiler": {
    "name": "solc",
    "version": "0.8.13+commit.abaa5c0e.Emscripten.clang"
  },
  "schemaVersion": "3.4.16",
  "updatedAt": "2024-07-25T09:49:08.433Z",
  "networkType": "ethereum",
  "devdoc": {
    "kind": "dev",
    "methods": {},
    "version": 1
  },
  "userdoc": {
    "kind": "user",
    "methods": {},
    "version": 1
  }
}