{
  "contractName": "ContractAuth",
  "abi": [
    {
      "anonymous": false,
      "inputs": [
        {
          "indexed": false,
          "internalType": "address",
          "name": "userAddress",
          "type": "address"
        },
        {
          "indexed": false,
          "internalType": "string",
          "name": "username",
          "type": "string"
        }
      ],
      "name": "UserAuthenticated",
      "type": "event"
    },
    {
      "anonymous": false,
      "inputs": [
        {
          "indexed": false,
          "internalType": "address",
          "name": "userAddress",
          "type": "address"
        },
        {
          "indexed": false,
          "internalType": "string",
          "name": "username",
          "type": "string"
        }
      ],
      "name": "UserRegistered",
      "type": "event"
    },
    {
      "inputs": [
        {
          "internalType": "string",
          "name": "username",
          "type": "string"
        },
        {
          "internalType": "string",
          "name": "password",
          "type": "string"
        }
      ],
      "name": "register",
      "outputs": [],
      "stateMutability": "nonpayable",
      "type": "function"
    },
    {
      "inputs": [
        {
          "internalType": "string",
          "name": "username",
          "type": "string"
        },
        {
          "internalType": "string",
          "name": "password",
          "type": "string"
        }
      ],
      "name": "authenticate",
      "outputs": [
        {
          "internalType": "bool",
          "name": "",
          "type": "bool"
        }
      ],
      "stateMutability": "nonpayable",
      "type": "function"
    },
    {
      "inputs": [],
      "name": "getUsername",
      "outputs": [
        {
          "internalType": "string",
          "name": "",
          "type": "string"
        }
      ],
      "stateMutability": "view",
      "type": "function",
      "constant": true
    }
  ],
  "bytecode": "0x608060405234801561001057600080fd5b50610ce8806100206000396000f3fe608060405234801561001057600080fd5b50600436106100415760003560e01c80633ffbd47f14610046578063544541b314610062578063681f3e6d14610092575b600080fd5b610060600480360381019061005b9190610886565b6100b0565b005b61007c60048036038101906100779190610886565b610250565b6040516100899190610919565b60405180910390f35b61009a610528565b6040516100a791906109bc565b60405180910390f35b336000808273ffffffffffffffffffffffffffffffffffffffff1673ffffffffffffffffffffffffffffffffffffffff16815260200190815260200160002060020160009054906101000a900460ff1615610140576040517f08c379a000000000000000000000000000000000000000000000000000000000815260040161013790610a2a565b60405180910390fd5b6000826040516020016101539190610a86565b6040516020818303038152906040528051906020012090506040518060600160405280858152602001828152602001600115158152506000803373ffffffffffffffffffffffffffffffffffffffff1673ffffffffffffffffffffffffffffffffffffffff16815260200190815260200160002060008201518160000190805190602001906101e3929190610689565b506020820151816001015560408201518160020160006101000a81548160ff0219169083151502179055509050507f48cac28ad4dc618e15f4c2dd5e97751182f166de97b25618318b2112aa951a2f3385604051610242929190610ade565b60405180910390a150505050565b6000336000808273ffffffffffffffffffffffffffffffffffffffff1673ffffffffffffffffffffffffffffffffffffffff16815260200190815260200160002060020160009054906101000a900460ff166102e1576040517f08c379a00000000000000000000000000000000000000000000000000000000081526004016102d890610b5a565b60405180910390fd5b60008060003373ffffffffffffffffffffffffffffffffffffffff1673ffffffffffffffffffffffffffffffffffffffff16815260200190815260200160002060405180606001604052908160008201805461033c90610ba9565b80601f016020809104026020016040519081016040528092919081815260200182805461036890610ba9565b80156103b55780601f1061038a576101008083540402835291602001916103b5565b820191906000526020600020905b81548152906001019060200180831161039857829003601f168201915b50505050508152602001600182015481526020016002820160009054906101000a900460ff161515151581525050905080600001516040516020016103fa9190610a86565b60405160208183030381529060405280519060200120856040516020016104219190610a86565b6040516020818303038152906040528051906020012014610477576040517f08c379a000000000000000000000000000000000000000000000000000000000815260040161046e90610c26565b60405180910390fd5b80602001518460405160200161048d9190610a86565b60405160208183030381529060405280519060200120146104e3576040517f08c379a00000000000000000000000000000000000000000000000000000000081526004016104da90610c92565b60405180910390fd5b7fcc056e302790f099f0ad7ff9d8072d8cae658c1fe0fa3b4d34ad04a9d47fdbf13386604051610514929190610ade565b60405180910390a160019250505092915050565b6060336000808273ffffffffffffffffffffffffffffffffffffffff1673ffffffffffffffffffffffffffffffffffffffff16815260200190815260200160002060020160009054906101000a900460ff166105b9576040517f08c379a00000000000000000000000000000000000000000000000000000000081526004016105b090610b5a565b60405180910390fd5b6000803373ffffffffffffffffffffffffffffffffffffffff1673ffffffffffffffffffffffffffffffffffffffff168152602001908152602001600020600001805461060590610ba9565b80601f016020809104026020016040519081016040528092919081815260200182805461063190610ba9565b801561067e5780601f106106535761010080835404028352916020019161067e565b820191906000526020600020905b81548152906001019060200180831161066157829003601f168201915b505050505091505090565b82805461069590610ba9565b90600052602060002090601f0160209004810192826106b757600085556106fe565b82601f106106d057805160ff19168380011785556106fe565b828001600101855582156106fe579182015b828111156106fd5782518255916020019190600101906106e2565b5b50905061070b919061070f565b5090565b5b80821115610728576000816000905550600101610710565b5090565b6000604051905090565b600080fd5b600080fd5b600080fd5b600080fd5b6000601f19601f8301169050919050565b7f4e487b7100000000000000000000000000000000000000000000000000000000600052604160045260246000fd5b6107938261074a565b810181811067ffffffffffffffff821117156107b2576107b161075b565b5b80604052505050565b60006107c561072c565b90506107d1828261078a565b919050565b600067ffffffffffffffff8211156107f1576107f061075b565b5b6107fa8261074a565b9050602081019050919050565b82818337600083830152505050565b6000610829610824846107d6565b6107bb565b90508281526020810184848401111561084557610844610745565b5b610850848285610807565b509392505050565b600082601f83011261086d5761086c610740565b5b813561087d848260208601610816565b91505092915050565b6000806040838503121561089d5761089c610736565b5b600083013567ffffffffffffffff8111156108bb576108ba61073b565b5b6108c785828601610858565b925050602083013567ffffffffffffffff8111156108e8576108e761073b565b5b6108f485828601610858565b9150509250929050565b60008115159050919050565b610913816108fe565b82525050565b600060208201905061092e600083018461090a565b92915050565b600081519050919050565b600082825260208201905092915050565b60005b8381101561096e578082015181840152602081019050610953565b8381111561097d576000848401525b50505050565b600061098e82610934565b610998818561093f565b93506109a8818560208601610950565b6109b18161074a565b840191505092915050565b600060208201905081810360008301526109d68184610983565b905092915050565b7f5573657220616c72656164792065786973747300000000000000000000000000600082015250565b6000610a1460138361093f565b9150610a1f826109de565b602082019050919050565b60006020820190508181036000830152610a4381610a07565b9050919050565b600081905092915050565b6000610a6082610934565b610a6a8185610a4a565b9350610a7a818560208601610950565b80840191505092915050565b6000610a928284610a55565b915081905092915050565b600073ffffffffffffffffffffffffffffffffffffffff82169050919050565b6000610ac882610a9d565b9050919050565b610ad881610abd565b82525050565b6000604082019050610af36000830185610acf565b8181036020830152610b058184610983565b90509392505050565b7f5573657220646f6573206e6f7420657869737400000000000000000000000000600082015250565b6000610b4460138361093f565b9150610b4f82610b0e565b602082019050919050565b60006020820190508181036000830152610b7381610b37565b9050919050565b7f4e487b7100000000000000000000000000000000000000000000000000000000600052602260045260246000fd5b60006002820490506001821680610bc157607f821691505b602082108103610bd457610bd3610b7a565b5b50919050565b7f557365726e616d6520646f6573206e6f74206d61746368000000000000000000600082015250565b6000610c1060178361093f565b9150610c1b82610bda565b602082019050919050565b60006020820190508181036000830152610c3f81610c03565b9050919050565b7f50617373776f726420646f6573206e6f74206d61746368000000000000000000600082015250565b6000610c7c60178361093f565b9150610c8782610c46565b602082019050919050565b60006020820190508181036000830152610cab81610c6f565b905091905056fea2646970667358221220809cd55489049bd22e7a00f5ae6f66eae597e23e085a944113c0572be71be7da64736f6c634300080d0033",
  "immutableReferences": {},
  "source": "// SPDX-License-Identifier: MIT\npragma solidity ^0.8.13;\n\ncontract ContractAuth {\n   struct User {\n        string username;\n        bytes32 passwordHash;\n        bool registered;\n    }\n\n    mapping(address => User) private users;\n\n    event UserRegistered(address userAddress, string username);\n    event UserAuthenticated(address userAddress, string username);\n\n    modifier userExists(address userAddress) {\n        require(users[userAddress].registered, \"User does not exist\");\n        _;\n    }\n\n    modifier userDoesNotExist(address userAddress) {\n        require(!users[userAddress].registered, \"User already exists\");\n        _;\n    }\n\n    function register(string memory username, string memory password) public userDoesNotExist(msg.sender) {\n        bytes32 passwordHash = keccak256(abi.encodePacked(password));\n        users[msg.sender] = User(username, passwordHash, true);\n        emit UserRegistered(msg.sender, username);\n    }\n\n    function authenticate(string memory username, string memory password) public userExists(msg.sender) returns (bool) {\n        User memory user = users[msg.sender];\n        require(keccak256(abi.encodePacked(username)) == keccak256(abi.encodePacked(user.username)), \"Username does not match\");\n        require(keccak256(abi.encodePacked(password)) == user.passwordHash, \"Password does not match\");\n        emit UserAuthenticated(msg.sender, username);\n        return true;\n    }\n\n    function getUsername() public view userExists(msg.sender) returns (string memory) {\n        return users[msg.sender].username;\n    }\n}\n",
  "sourcePath": "/home/yaki/projet/PROJET-BLOCKCHAIN/smartcontract/contracts/ContractAuth.sol",
  "compiler": {
    "name": "solc",
    "version": "0.8.13+commit.abaa5c0e.Emscripten.clang"
  },
  "schemaVersion": "3.4.16",
  "updatedAt": "2024-07-25T09:49:08.455Z",
  "networkType": "ethereum",
  "devdoc": {
    "kind": "dev",
    "methods": {},
    "version": 1
  },
  "userdoc": {
    "kind": "user",
    "methods": {},
    "version": 1
  }
}