{
  "contractName": "ContratSoumissions",
  "abi": [
    {
      "inputs": [],
      "name": "offreCount",
      "outputs": [
        {
          "internalType": "uint256",
          "name": "",
          "type": "uint256"
        }
      ],
      "stateMutability": "view",
      "type": "function",
      "constant": true
    },
    {
      "inputs": [
        {
          "internalType": "uint256",
          "name": "",
          "type": "uint256"
        }
      ],
      "name": "soumissions",
      "outputs": [
        {
          "internalType": "uint256",
          "name": "numeroSoumission",
          "type": "uint256"
        },
        {
          "internalType": "address",
          "name": "soumissionaire",
          "type": "address"
        },
        {
          "internalType": "uint256",
          "name": "numeroContrat",
          "type": "uint256"
        },
        {
          "internalType": "string",
          "name": "nom",
          "type": "string"
        },
        {
          "internalType": "string",
          "name": "coutTotal",
          "type": "string"
        },
        {
          "internalType": "string",
          "name": "delaiRealisation",
          "type": "string"
        },
        {
          "internalType": "string",
          "name": "references",
          "type": "string"
        }
      ],
      "stateMutability": "view",
      "type": "function",
      "constant": true
    },
    {
      "inputs": [
        {
          "internalType": "address",
          "name": "_soumissionaire",
          "type": "address"
        },
        {
          "internalType": "uint256",
          "name": "_numeroContrat",
          "type": "uint256"
        },
        {
          "internalType": "string",
          "name": "_nom",
          "type": "string"
        },
        {
          "internalType": "string",
          "name": "_coutTotal",
          "type": "string"
        },
        {
          "internalType": "string",
          "name": "_delaiRealisation",
          "type": "string"
        },
        {
          "internalType": "string",
          "name": "_references",
          "type": "string"
        }
      ],
      "name": "ajouterSoumission",
      "outputs": [],
      "stateMutability": "nonpayable",
      "type": "function"
    },
    {
      "inputs": [],
      "name": "nombreSoumissions",
      "outputs": [
        {
          "internalType": "uint256",
          "name": "",
          "type": "uint256"
        }
      ],
      "stateMutability": "view",
      "type": "function",
      "constant": true
    },
    {
      "inputs": [
        {
          "internalType": "uint256",
          "name": "index",
          "type": "uint256"
        }
      ],
      "name": "obtenirSoumissionParIndex",
      "outputs": [
        {
          "internalType": "uint256",
          "name": "numeroSoumission",
          "type": "uint256"
        },
        {
          "internalType": "address",
          "name": "soumissionaire",
          "type": "address"
        },
        {
          "internalType": "uint256",
          "name": "numeroContrat",
          "type": "uint256"
        },
        {
          "internalType": "string",
          "name": "nom",
          "type": "string"
        },
        {
          "internalType": "string",
          "name": "coutTotal",
          "type": "string"
        },
        {
          "internalType": "string",
          "name": "delaiRealisation",
          "type": "string"
        },
        {
          "internalType": "string",
          "name": "references",
          "type": "string"
        }
      ],
      "stateMutability": "view",
      "type": "function",
      "constant": true
    },
    {
      "inputs": [],
      "name": "listeToutesSoumissions",
      "outputs": [
        {
          "components": [
            {
              "internalType": "uint256",
              "name": "numeroSoumission",
              "type": "uint256"
            },
            {
              "internalType": "address",
              "name": "soumissionaire",
              "type": "address"
            },
            {
              "internalType": "uint256",
              "name": "numeroContrat",
              "type": "uint256"
            },
            {
              "internalType": "string",
              "name": "nom",
              "type": "string"
            },
            {
              "internalType": "string",
              "name": "coutTotal",
              "type": "string"
            },
            {
              "internalType": "string",
              "name": "delaiRealisation",
              "type": "string"
            },
            {
              "internalType": "string",
              "name": "references",
              "type": "string"
            }
          ],
          "internalType": "struct ContratSoumissions.Soumission[]",
          "name": "",
          "type": "tuple[]"
        }
      ],
      "stateMutability": "view",
      "type": "function",
      "constant": true
    }
  ],
  "bytecode": "0x608060405234801561001057600080fd5b506114ae806100206000396000f3fe608060405234801561001057600080fd5b50600436106100625760003560e01c80633dafb7a0146100675780634433920b1461009d5780634a0cdfc8146100bb5780635fe25f28146100d9578063a898eb8f146100f7578063dff9447214610113575b600080fd5b610081600480360381019061007c9190610cc9565b610149565b6040516100949796959493929190610ddf565b60405180910390f35b6100a56104ba565b6040516100b29190610e6a565b60405180910390f35b6100c36104c0565b6040516100d09190611060565b60405180910390f35b6100e16107d1565b6040516100ee9190610e6a565b60405180910390f35b610111600480360381019061010c91906111e3565b6107dd565b005b61012d60048036038101906101289190610cc9565b61094a565b6040516101409796959493929190610ddf565b60405180910390f35b6000806000606080606080600080549050881061019b576040517f08c379a000000000000000000000000000000000000000000000000000000000815260040161019290611352565b60405180910390fd5b60008089815481106101b0576101af611372565b5b90600052602060002090600702016040518060e0016040529081600082015481526020016001820160009054906101000a900473ffffffffffffffffffffffffffffffffffffffff1673ffffffffffffffffffffffffffffffffffffffff1673ffffffffffffffffffffffffffffffffffffffff16815260200160028201548152602001600382018054610243906113d0565b80601f016020809104026020016040519081016040528092919081815260200182805461026f906113d0565b80156102bc5780601f10610291576101008083540402835291602001916102bc565b820191906000526020600020905b81548152906001019060200180831161029f57829003601f168201915b505050505081526020016004820180546102d5906113d0565b80601f0160208091040260200160405190810160405280929190818152602001828054610301906113d0565b801561034e5780601f106103235761010080835404028352916020019161034e565b820191906000526020600020905b81548152906001019060200180831161033157829003601f168201915b50505050508152602001600582018054610367906113d0565b80601f0160208091040260200160405190810160405280929190818152602001828054610393906113d0565b80156103e05780601f106103b5576101008083540402835291602001916103e0565b820191906000526020600020905b8154815290600101906020018083116103c357829003601f168201915b505050505081526020016006820180546103f9906113d0565b80601f0160208091040260200160405190810160405280929190818152602001828054610425906113d0565b80156104725780601f1061044757610100808354040283529160200191610472565b820191906000526020600020905b81548152906001019060200180831161045557829003601f168201915b5050505050815250509050806000015181602001518260400151836060015184608001518560a001518660c00151975097509750975097509750975050919395979092949650565b60015481565b60606000805480602002602001604051908101604052809291908181526020016000905b828210156107c857838290600052602060002090600702016040518060e0016040529081600082015481526020016001820160009054906101000a900473ffffffffffffffffffffffffffffffffffffffff1673ffffffffffffffffffffffffffffffffffffffff1673ffffffffffffffffffffffffffffffffffffffff16815260200160028201548152602001600382018054610581906113d0565b80601f01602080910402602001604051908101604052809291908181526020018280546105ad906113d0565b80156105fa5780601f106105cf576101008083540402835291602001916105fa565b820191906000526020600020905b8154815290600101906020018083116105dd57829003601f168201915b50505050508152602001600482018054610613906113d0565b80601f016020809104026020016040519081016040528092919081815260200182805461063f906113d0565b801561068c5780601f106106615761010080835404028352916020019161068c565b820191906000526020600020905b81548152906001019060200180831161066f57829003601f168201915b505050505081526020016005820180546106a5906113d0565b80601f01602080910402602001604051908101604052809291908181526020018280546106d1906113d0565b801561071e5780601f106106f35761010080835404028352916020019161071e565b820191906000526020600020905b81548152906001019060200180831161070157829003601f168201915b50505050508152602001600682018054610737906113d0565b80601f0160208091040260200160405190810160405280929190818152602001828054610763906113d0565b80156107b05780601f10610785576101008083540402835291602001916107b0565b820191906000526020600020905b81548152906001019060200180831161079357829003601f168201915b505050505081525050815260200190600101906104e4565b50505050905090565b60008080549050905090565b600160008154809291906107f090611430565b919050555060006040518060e0016040528060015481526020018873ffffffffffffffffffffffffffffffffffffffff16815260200187815260200186815260200185815260200184815260200183815250905060008190806001815401808255809150506001900390600052602060002090600702016000909190919091506000820151816000015560208201518160010160006101000a81548173ffffffffffffffffffffffffffffffffffffffff021916908373ffffffffffffffffffffffffffffffffffffffff1602179055506040820151816002015560608201518160030190805190602001906108e7929190610bdc565b506080820151816004019080519060200190610904929190610bdc565b5060a0820151816005019080519060200190610921929190610bdc565b5060c082015181600601908051906020019061093e929190610bdc565b50505050505050505050565b6000818154811061095a57600080fd5b90600052602060002090600702016000915090508060000154908060010160009054906101000a900473ffffffffffffffffffffffffffffffffffffffff16908060020154908060030180546109af906113d0565b80601f01602080910402602001604051908101604052809291908181526020018280546109db906113d0565b8015610a285780601f106109fd57610100808354040283529160200191610a28565b820191906000526020600020905b815481529060010190602001808311610a0b57829003601f168201915b505050505090806004018054610a3d906113d0565b80601f0160208091040260200160405190810160405280929190818152602001828054610a69906113d0565b8015610ab65780601f10610a8b57610100808354040283529160200191610ab6565b820191906000526020600020905b815481529060010190602001808311610a9957829003601f168201915b505050505090806005018054610acb906113d0565b80601f0160208091040260200160405190810160405280929190818152602001828054610af7906113d0565b8015610b445780601f10610b1957610100808354040283529160200191610b44565b820191906000526020600020905b815481529060010190602001808311610b2757829003601f168201915b505050505090806006018054610b59906113d0565b80601f0160208091040260200160405190810160405280929190818152602001828054610b85906113d0565b8015610bd25780601f10610ba757610100808354040283529160200191610bd2565b820191906000526020600020905b815481529060010190602001808311610bb557829003601f168201915b5050505050905087565b828054610be8906113d0565b90600052602060002090601f016020900481019282610c0a5760008555610c51565b82601f10610c2357805160ff1916838001178555610c51565b82800160010185558215610c51579182015b82811115610c50578251825591602001919060010190610c35565b5b509050610c5e9190610c62565b5090565b5b80821115610c7b576000816000905550600101610c63565b5090565b6000604051905090565b600080fd5b600080fd5b6000819050919050565b610ca681610c93565b8114610cb157600080fd5b50565b600081359050610cc381610c9d565b92915050565b600060208284031215610cdf57610cde610c89565b5b6000610ced84828501610cb4565b91505092915050565b610cff81610c93565b82525050565b600073ffffffffffffffffffffffffffffffffffffffff82169050919050565b6000610d3082610d05565b9050919050565b610d4081610d25565b82525050565b600081519050919050565b600082825260208201905092915050565b60005b83811015610d80578082015181840152602081019050610d65565b83811115610d8f576000848401525b50505050565b6000601f19601f8301169050919050565b6000610db182610d46565b610dbb8185610d51565b9350610dcb818560208601610d62565b610dd481610d95565b840191505092915050565b600060e082019050610df4600083018a610cf6565b610e016020830189610d37565b610e0e6040830188610cf6565b8181036060830152610e208187610da6565b90508181036080830152610e348186610da6565b905081810360a0830152610e488185610da6565b905081810360c0830152610e5c8184610da6565b905098975050505050505050565b6000602082019050610e7f6000830184610cf6565b92915050565b600081519050919050565b600082825260208201905092915050565b6000819050602082019050919050565b610eba81610c93565b82525050565b610ec981610d25565b82525050565b600082825260208201905092915050565b6000610eeb82610d46565b610ef58185610ecf565b9350610f05818560208601610d62565b610f0e81610d95565b840191505092915050565b600060e083016000830151610f316000860182610eb1565b506020830151610f446020860182610ec0565b506040830151610f576040860182610eb1565b5060608301518482036060860152610f6f8282610ee0565b91505060808301518482036080860152610f898282610ee0565b91505060a083015184820360a0860152610fa38282610ee0565b91505060c083015184820360c0860152610fbd8282610ee0565b9150508091505092915050565b6000610fd68383610f19565b905092915050565b6000602082019050919050565b6000610ff682610e85565b6110008185610e90565b93508360208202850161101285610ea1565b8060005b8581101561104e578484038952815161102f8582610fca565b945061103a83610fde565b925060208a01995050600181019050611016565b50829750879550505050505092915050565b6000602082019050818103600083015261107a8184610feb565b905092915050565b61108b81610d25565b811461109657600080fd5b50565b6000813590506110a881611082565b92915050565b600080fd5b600080fd5b7f4e487b7100000000000000000000000000000000000000000000000000000000600052604160045260246000fd5b6110f082610d95565b810181811067ffffffffffffffff8211171561110f5761110e6110b8565b5b80604052505050565b6000611122610c7f565b905061112e82826110e7565b919050565b600067ffffffffffffffff82111561114e5761114d6110b8565b5b61115782610d95565b9050602081019050919050565b82818337600083830152505050565b600061118661118184611133565b611118565b9050828152602081018484840111156111a2576111a16110b3565b5b6111ad848285611164565b509392505050565b600082601f8301126111ca576111c96110ae565b5b81356111da848260208601611173565b91505092915050565b60008060008060008060c08789031215611200576111ff610c89565b5b600061120e89828a01611099565b965050602061121f89828a01610cb4565b955050604087013567ffffffffffffffff8111156112405761123f610c8e565b5b61124c89828a016111b5565b945050606087013567ffffffffffffffff81111561126d5761126c610c8e565b5b61127989828a016111b5565b935050608087013567ffffffffffffffff81111561129a57611299610c8e565b5b6112a689828a016111b5565b92505060a087013567ffffffffffffffff8111156112c7576112c6610c8e565b5b6112d389828a016111b5565b9150509295509295509295565b7f4c27696e6465782065737420656e206465686f7273206465206c6120706c616760008201527f6500000000000000000000000000000000000000000000000000000000000000602082015250565b600061133c602183610d51565b9150611347826112e0565b604082019050919050565b6000602082019050818103600083015261136b8161132f565b9050919050565b7f4e487b7100000000000000000000000000000000000000000000000000000000600052603260045260246000fd5b7f4e487b7100000000000000000000000000000000000000000000000000000000600052602260045260246000fd5b600060028204905060018216806113e857607f821691505b6020821081036113fb576113fa6113a1565b5b50919050565b7f4e487b7100000000000000000000000000000000000000000000000000000000600052601160045260246000fd5b600061143b82610c93565b91507fffffffffffffffffffffffffffffffffffffffffffffffffffffffffffffffff820361146d5761146c611401565b5b60018201905091905056fea2646970667358221220fa3e90b59bf3b50c55f0b6d7075797e402c05372c4c48b44826285863427445564736f6c634300080d0033",
  "immutableReferences": {},
  "source": "// SPDX-License-Identifier: MIT\npragma solidity ^0.8.13;\n\ncontract ContratSoumissions {\n    // Structure pour stocker les informations de soumission\n    \n    struct Soumission {\n        uint numeroSoumission;\n        address soumissionaire; // Adresse de la personne ayant soumis la soumission\n        uint256 numeroContrat; // Numro du contrat associ  la soumission\n        string nom;\n        string coutTotal;\n        string delaiRealisation;\n        string references;\n    }\n    \n    // Tableau pour stocker toutes les soumissions\n    Soumission[] public soumissions;\n    uint public offreCount;\n    \n    // Fonction pour ajouter une nouvelle soumission\n    function ajouterSoumission(\n        address _soumissionaire,\n        uint256 _numeroContrat,\n        string memory _nom,\n        string memory _coutTotal,\n        string memory _delaiRealisation,\n        string memory _references\n    ) public  {\n        offreCount++;\n        // Crer une nouvelle instance de la structure Soumission\n        Soumission memory nouvelleSoumission = Soumission({\n            numeroSoumission: offreCount,\n            soumissionaire: _soumissionaire,\n            numeroContrat: _numeroContrat,\n            nom: _nom,\n            coutTotal: _coutTotal,\n            delaiRealisation: _delaiRealisation,\n            references: _references\n        });\n        \n        // Ajouter la nouvelle soumission au tableau\n        soumissions.push(nouvelleSoumission);\n    }\n\n    // Fonction pour obtenir le nombre total de soumissions\n    function nombreSoumissions() public view returns (uint256) {\n        return soumissions.length;\n    }\n\n    // Fonction pour obtenir les informations d'une soumission par son index\n    function obtenirSoumissionParIndex(uint256 index) public view returns (\n        uint numeroSoumission,\n        address soumissionaire,\n        uint256 numeroContrat,\n        string memory nom,\n        string memory coutTotal,\n        string memory delaiRealisation,\n        string memory references\n    ) {\n        require(index < soumissions.length, \"L'index est en dehors de la plage\");\n        Soumission memory soumission = soumissions[index];\n        return (\n             soumission.numeroSoumission,\n            soumission.soumissionaire,\n            soumission.numeroContrat,\n            soumission.nom,\n            soumission.coutTotal,\n            soumission.delaiRealisation,\n            soumission.references\n        );\n    }\n\n    // Fonction pour obtenir la liste de toutes les soumissions\n    function listeToutesSoumissions() public view returns (Soumission[] memory) {\n        return soumissions;\n    }\n}\n",
  "sourcePath": "/home/yaki/projet/PROJET-BLOCKCHAIN/smartcontract/contracts/ContratSoumissions.sol",
  "compiler": {
    "name": "solc",
    "version": "0.8.13+commit.abaa5c0e.Emscripten.clang"
  },
  "schemaVersion": "3.4.16",
  "updatedAt": "2024-06-26T09:48:11.307Z",
  "networkType": "ethereum",
  "devdoc": {
    "kind": "dev",
    "methods": {},
    "version": 1
  },
  "userdoc": {
    "kind": "user",
    "methods": {},
    "version": 1
  }
}