{
  "contractName": "ContractAuth",
  "abi": [
    {
      "inputs": [
        {
          "internalType": "string",
          "name": "_username",
          "type": "string"
        },
        {
          "internalType": "string",
          "name": "_password",
          "type": "string"
        }
      ],
      "name": "register",
      "outputs": [],
      "stateMutability": "nonpayable",
      "type": "function"
    },
    {
      "inputs": [
        {
          "internalType": "string",
          "name": "_password",
          "type": "string"
        }
      ],
      "name": "authenticate",
      "outputs": [
        {
          "internalType": "bool",
          "name": "",
          "type": "bool"
        }
      ],
      "stateMutability": "view",
      "type": "function",
      "constant": true
    },
    {
      "inputs": [],
      "name": "getUsername",
      "outputs": [
        {
          "internalType": "string",
          "name": "",
          "type": "string"
        }
      ],
      "stateMutability": "view",
      "type": "function",
      "constant": true
    }
  ],
  "bytecode": "0x608060405234801561001057600080fd5b506109a9806100206000396000f3fe608060405234801561001057600080fd5b50600436106100415760003560e01c80633ffbd47f14610046578063681f3e6d14610062578063aa613b2914610080575b600080fd5b610060600480360381019061005b9190610647565b6100b0565b005b61006a6101e7565b6040516100779190610747565b60405180910390f35b61009a60048036038101906100959190610769565b610348565b6040516100a791906107cd565b60405180910390f35b60008060003373ffffffffffffffffffffffffffffffffffffffff1673ffffffffffffffffffffffffffffffffffffffff16815260200190815260200160002060000180546100fe90610817565b905014610140576040517f08c379a000000000000000000000000000000000000000000000000000000000815260040161013790610894565b60405180910390fd5b60405180604001604052808381526020018260405160200161016291906108f0565b604051602081830303815290604052805190602001208152506000803373ffffffffffffffffffffffffffffffffffffffff1673ffffffffffffffffffffffffffffffffffffffff16815260200190815260200160002060008201518160000190805190602001906101d592919061044a565b50602082015181600101559050505050565b606060008060003373ffffffffffffffffffffffffffffffffffffffff1673ffffffffffffffffffffffffffffffffffffffff168152602001908152602001600020600001805461023790610817565b905003610279576040517f08c379a000000000000000000000000000000000000000000000000000000000815260040161027090610953565b60405180910390fd5b6000803373ffffffffffffffffffffffffffffffffffffffff1673ffffffffffffffffffffffffffffffffffffffff16815260200190815260200160002060000180546102c590610817565b80601f01602080910402602001604051908101604052809291908181526020018280546102f190610817565b801561033e5780601f106103135761010080835404028352916020019161033e565b820191906000526020600020905b81548152906001019060200180831161032157829003601f168201915b5050505050905090565b6000806000803373ffffffffffffffffffffffffffffffffffffffff1673ffffffffffffffffffffffffffffffffffffffff168152602001908152602001600020600001805461039790610817565b9050036103d9576040517f08c379a00000000000000000000000000000000000000000000000000000000081526004016103d090610953565b60405180910390fd5b816040516020016103ea91906108f0565b604051602081830303815290604052805190602001206000803373ffffffffffffffffffffffffffffffffffffffff1673ffffffffffffffffffffffffffffffffffffffff16815260200190815260200160002060010154149050919050565b82805461045690610817565b90600052602060002090601f01602090048101928261047857600085556104bf565b82601f1061049157805160ff19168380011785556104bf565b828001600101855582156104bf579182015b828111156104be5782518255916020019190600101906104a3565b5b5090506104cc91906104d0565b5090565b5b808211156104e95760008160009055506001016104d1565b5090565b6000604051905090565b600080fd5b600080fd5b600080fd5b600080fd5b6000601f19601f8301169050919050565b7f4e487b7100000000000000000000000000000000000000000000000000000000600052604160045260246000fd5b6105548261050b565b810181811067ffffffffffffffff821117156105735761057261051c565b5b80604052505050565b60006105866104ed565b9050610592828261054b565b919050565b600067ffffffffffffffff8211156105b2576105b161051c565b5b6105bb8261050b565b9050602081019050919050565b82818337600083830152505050565b60006105ea6105e584610597565b61057c565b90508281526020810184848401111561060657610605610506565b5b6106118482856105c8565b509392505050565b600082601f83011261062e5761062d610501565b5b813561063e8482602086016105d7565b91505092915050565b6000806040838503121561065e5761065d6104f7565b5b600083013567ffffffffffffffff81111561067c5761067b6104fc565b5b61068885828601610619565b925050602083013567ffffffffffffffff8111156106a9576106a86104fc565b5b6106b585828601610619565b9150509250929050565b600081519050919050565b600082825260208201905092915050565b60005b838110156106f95780820151818401526020810190506106de565b83811115610708576000848401525b50505050565b6000610719826106bf565b61072381856106ca565b93506107338185602086016106db565b61073c8161050b565b840191505092915050565b60006020820190508181036000830152610761818461070e565b905092915050565b60006020828403121561077f5761077e6104f7565b5b600082013567ffffffffffffffff81111561079d5761079c6104fc565b5b6107a984828501610619565b91505092915050565b60008115159050919050565b6107c7816107b2565b82525050565b60006020820190506107e260008301846107be565b92915050565b7f4e487b7100000000000000000000000000000000000000000000000000000000600052602260045260246000fd5b6000600282049050600182168061082f57607f821691505b602082108103610842576108416107e8565b5b50919050565b7f5573657220616c726561647920726567697374657265642e0000000000000000600082015250565b600061087e6018836106ca565b915061088982610848565b602082019050919050565b600060208201905081810360008301526108ad81610871565b9050919050565b600081905092915050565b60006108ca826106bf565b6108d481856108b4565b93506108e48185602086016106db565b80840191505092915050565b60006108fc82846108bf565b915081905092915050565b7f55736572206e6f7420726567697374657265642e000000000000000000000000600082015250565b600061093d6014836106ca565b915061094882610907565b602082019050919050565b6000602082019050818103600083015261096c81610930565b905091905056fea26469706673582212208e496e7c2ae668f6ae511dcde3797a95f821bd408ebb0964ddcd85b2d7e8efe764736f6c634300080d0033",
  "immutableReferences": {},
  "source": "// SPDX-License-Identifier: MIT\npragma solidity ^0.8.13;\n\ncontract ContractAuth {\n    struct User {\n        string username;\n        bytes32 passwordHash;\n    }\n\n    mapping(address => User) private users;\n\n    function register(string memory _username, string memory _password) public {\n        require(bytes(users[msg.sender].username).length == 0, \"User already registered.\");\n        users[msg.sender] = User(_username, keccak256(abi.encodePacked(_password)));\n    }\n\n    function authenticate(string memory _password) public view returns (bool) {\n        require(bytes(users[msg.sender].username).length != 0, \"User not registered.\");\n        return users[msg.sender].passwordHash == keccak256(abi.encodePacked(_password));\n    }\n\n    function getUsername() public view returns (string memory) {\n        require(bytes(users[msg.sender].username).length != 0, \"User not registered.\");\n        return users[msg.sender].username;\n    }\n}\n",
  "sourcePath": "/home/yaki/projet/PROJET-BLOCKCHAIN/smartcontract/contracts/ContractAuth.sol",
  "compiler": {
    "name": "solc",
    "version": "0.8.13+commit.abaa5c0e.Emscripten.clang"
  },
  "schemaVersion": "3.4.16",
  "updatedAt": "2024-07-24T14:07:47.841Z",
  "networkType": "ethereum",
  "devdoc": {
    "kind": "dev",
    "methods": {},
    "version": 1
  },
  "userdoc": {
    "kind": "user",
    "methods": {},
    "version": 1
  }
}